:020000040800F2
:100000009822002051020008CB3C0008E33400088D
:10001000C93C0008A718000891440008000000002F
:10002000000000000000000000000000B90100080E
:10003000A918000800000000FD0100085141000857
:100040006B0200086B0200086B0200086B020008DC
:100050006B0200086B0200086B0200086B020008CC
:100060006B0200086B0200086B0200086B020008BC
:100070006B0200086B0200086B0200086B020008AC
:100080006B0200086B0200086B0200086B0200089C
:100090006B0200086B0200086B0200086B0200088C
:1000A0006B0200086B0200086B0200086B0200087C
:1000B0006B0200086B020008E14100086B020008B7
:1000C0006B0200086B0200086B0200086B0200085C
:1000D0006B0200086B020008854400086B020008F0
:1000E0006B0200086B0200086B02000800F002F8C7
:1000F00000F053F80AA090E8000C82448344AAF16F
:100100000107DA4501D100F048F8AFF2090EBAE86C
:100110000F0013F0010F18BFFB1A43F0010318473B
:10012000007B0000207B0000103A24BF78C878C113
:10013000FAD8520724BF30C830C144BF04680C60ED
:10014000704700000023002400250026103A28BF35
:1001500078C1FBD8520728BF30C148BF0B60704739
:10016000662907F04483642900F00A81732900F0AE
:100170006685002070471FB500F020FE04000020B7
:10018000002106F0BDFC401C60600020002106F04C
:10019000A1FCE0601FBD10B510BD00F079FF114655
:1001A000FFF7E9FF04F056FA00F0A5FF03B4FFF7EC
:1001B000F2FF03BC00F0A8FF224B19680868B0E802
:1001C000F00F80F30988BFF36F8F4FF0000080F3CA
:1001D00011884EF00D0E70470000000006480068C0
:1001E000006880F3088862B661B6BFF34F8FBFF333
:1001F0006F8F00DF00BF00BF08ED00E0EFF3098064
:10020000BFF36F8F0F4B1A6820E9F00F106008B52D
:100210004FF0500080F31188BFF34F8FBFF36F8F03
:1002200005F00EFD4FF0000080F31188BDE8084096
:1002300019680868B0E8F00F80F30988BFF36F8F82
:10024000704700BF68000020EFF305807047000092
:100250000948804709480047FEE7FEE7FEE7FEE75A
:10026000FEE7FEE7FEE7FEE7FEE7FEE70448054996
:10027000054A064B70470000DF410008ED0000080A
:10028000981C002098220020981E0020981E002014
:10029000B2F120030AD5C2F1200320FA02F001FADC
:1002A00003F321FA02F140EA0300704721FA03F058
:1002B0004FF00001704700000FB41CB5074B06AAB1
:1002C0007B4469460090059800F08FFC0020694649
:1002D00000F09EFC1CBC5DF814FB00004D09000002
:1002E00070B5044685690068C10601D5302600E076
:1002F0002026C00707D070BDD4E9012130469047C1
:10030000206A401C20626D1EF6D570BD70B5044693
:1003100085690078C00707D170BDD4E9012120208C
:100320009047206A401C20626D1EF6D570BD70B5E6
:100330000C460546012A05D02878800600D5EA69D2
:10034000002302E0012305E05B1C934202D2E05C43
:100350000028F9D1A869E618C01AA861286A1844CB
:1003600028622846FFF7BCFF04E0D5E9012114F814
:10037000010B9047B442F8D32846FFF7C7FF70BD82
:100380002DE9F0410646002410687529314616A56E
:1003900010D0AFF30080002802DA404213A507E036
:1003A00031688A0701D512A502E0490704D511A5D5
:1003B000012401E0AFF3008000210A2206F12407A6
:1003C00009E0B0FBF2FCB0FBF2F302FB1C003030A2
:1003D00078541846491C0028F3D123462A46304653
:1003E000BDE8F04100F094B9000000002D000000CD
:1003F0002B000000200000002DE9F05F8946044634
:100400004FF0000ADFF824B1FB44C0F820A02046DA
:10041000E168884700287DD0252806D0D4E901214D
:100420009047206A401C2062F1E700255F46204685
:10043000E16888472028064607DB312E05D2B81927
:1004400010F8200C08B10543F1E7A80701D525F005
:100450000405C4F81CA00027C4F818A02A2E09D04F
:10046000304604F03CF838B304EB8708303EC8F857
:10047000186019E059F8041B204604EB87029161CB
:10048000E1688847012F064618D1E069002820DA84
:1004900025F020051DE0D8F8180000EB800006EBE1
:1004A00040003038C8F818002046E1688847064602
:1004B00004F015F80028EED1012F0AD02E2E08D115
:1004C0002046E16888477F1C0646022F45F020053C
:1004D000C4DBA069002803DA404245F00105A061B1
:1004E000E80701D025F01005A6B1A6F141001928B2
:1004F00002D8203645F400654A463146204625603C
:100500004D46FFF72DFE60B1012807D0ED1D25F007
:10051000070000E007E000F1080978E705F10409A9
:1005200075E730467AE7206ABDE8F09F1A7600004A
:1005300070B5064600F0E8F80468054630460A2221
:10054000002100F080FB2C6070BD0000014A00F02B
:10055000B3BB0000E000002010B5431C02E010F81F
:10056000011B71B18107FAD14FF0013202C88C1A18
:100570008C4314EAC211F9D0C01A0A0603D0C01E77
:1005800010BDC01A10BD0A0401D0801E10BD0902A2
:10059000FCD0401E10BD032A40F2308010F0030C46
:1005A00000F0158011F8013BBCF1020F624498BFC6
:1005B00011F801CB00F8013B38BF11F8013BA2F163
:1005C000040298BF00F801CB38BF00F8013B11F0DE
:1005D000030300F09383083AC0F0088051F8043B0D
:1005E000083A51F804CBA0E80810F5E7121D5CBFEB
:1005F00051F8043B40F8043BAFF30080D20724BF1E
:1006000011F8013B11F801CB48BF11F8012B24BFB1
:1006100000F8013B00F801CB48BF00F8012B704700
:1006200002F0FF0343EA032242EA024200F09ABBCF
:100630004FF0000200B5134694469646203922BF7B
:10064000A0E80C50A0E80C50B1F12001BFF4F7AFC6
:10065000090728BFA0E80C5048BF0CC05DF804EBA8
:10066000890028BF40F8042B08BF704748BF20F816
:10067000022B11F0804F18BF00F8012B70470000CB
:100680004FF0013C50F8042B51F8043B9A4221D121
:10069000A2EB0C03934313EACC1317D150F8042BAD
:1006A00051F8043B9A4215D1A2EB0C03934313EA91
:1006B000CC130BD150F8042B51F8043B9A4209D1CA
:1006C000A2EB0C03934313EACC13DBD04FF00000F2
:1006D000704700BFD01A01BAB1FA81F101F01801D8
:1006E00022FA01F0CB40C1F12001DBB2C0B2C01A46
:1006F0002CFA01F3D11A914311EAC311E6D17047E4
:10070000704770477047000000487047341C002055
:100710002DE9F0470D4699469246044600F124081B
:100720000168880604D5E06921F01001216000E02D
:100730000120A84201DD471B00E00027A1697A19CA
:1007400002EB0900081AA0612078C00602D42046F6
:10075000FFF7C6FD002608E0D4E901211AF80600DB
:100760009047206A401C761C20624E45F4DB2078BE
:10077000C0060AD52046FFF7B3FD06E0D4E9012103
:1007800030209047206A401C2062381EA7F10107E4
:10079000F4DC07E0D4E9012118F805009047206A4D
:1007A000401C2062281EA5F10105F3DC2046FFF75E
:1007B000ADFD2078000602D50220BDE8F0870120BB
:1007C000FBE770472DE9FF4F0C461E464FF0FF3701
:1007D0008BB0D2E90001DDF860800A908A46C1F34F
:1007E0000A5505B93D46002108464FF00000BAF110
:1007F000000F00F4400005DA00EB80004FF44001E8
:1008000001EA50004FEA9059B9F1010F00DDB946F5
:100810000A9850EA4A000ED044F61050A5F2FF356F
:1008200045432F14B8F1000F1ED07542291E1EDD5E
:10083000C9F100021CE0B8F1010F4FF0000001D037
:10084000302103E0F24305E02154401CB042FBDBC1
:1008500030460022002121540B99C1F80880C1E9DB
:1008600000200FB0BDE8F08FBD1B6D1CDEE74A46CF
:1008700000DA694206A800F07BFB06AB93E80700AC
:1008800003AB83E8070050460A9900F044FC8DE86A
:100890000700A0F500501F3800900398002D0ADDD6
:1008A00042F21F014A460844002303A90390684608
:1008B00000F0ADFE09E0A0F500504A461F380023C5
:1008C00003A90390684600F0B7FE8DE80700000416
:1008D000000C03D04FF0FF30410800E01046B8F1A3
:1008E000000F03D00022009215461EE0751E05D4AD
:1008F00000F068FA303262556D1EF9D5B346012218
:10090000084302D000227F1C04E02078302801D167
:1009100000227F1E002A099784D01DE0112D07DADE
:1009200000F050FA303262556D1C50EA0102F5D1E8
:10093000084302D00098C8B10EE00021681E05E00F
:10094000235C625C63542254401E491C8142F7DBE5
:10095000AB46A81B401E0990002004F80B000B9822
:10096000099AC0F80880C0E9002B7AE711264FF0F9
:10097000000857E72DE9F04F88460446D21D22F0C3
:10098000070191B0D1E90001CDE90A0103F083FD2F
:1009900002460B98C00F01D02D2007E02068810788
:1009A00001D52B2002E0202101EAC000032A099092
:1009B00001D0072A05DB03464146204600F048FAED
:1009C0000BE12078800601D5E06900E00620B8F14F
:1009D000650F814606D0B8F1660F18D0B8F1670FE1
:1009E00070D131E00020B9F1110F009001DB11232B
:1009F00001E009F101030AAA01A90CA8FFF7E2FE30
:100A0000DDE90C70002609F10105834647E001206D
:100A10004B4600904FF000470AAA01A90CA8FFF727
:100A2000D1FEDDE90DB00C995D46002610B909F143
:100A300001000D18B9EB050003D4C0F1FF3609F130
:100A40000105A5EB09002BE0B9F1010F01DA4FF028
:100A500001090020B9F1110F0090484601DD112372
:100A600000E003460AAA01A90CA8FFF7ABFEDDE9E6
:100A70000C704D4600268346207800070AD4AB450B
:100A800000DA5D4601A8012D04DD411911F8011CB1
:100A9000302907D04F4502DA17F1040F04DA01209C
:100AA00082460FE06D1EEEE7002F02DCED1B3E4498
:100AB00003E0781CA84200DD7D1CB81B00F1010A90
:100AC0004FF000472078000703D4AA4501DB4FF020
:100AD000FF3A0021B7F1004F0DF143088DF84310A4
:100AE00024D002202B23002F01DA7F422D230A215C
:100AF000021EA0F1010000DC5FB197FBF1FC97FB47
:100B0000F1F201FB1C7C17460CF1300C08F801CD0A
:100B1000EEE7A8F1010003702188090501D5452100
:100B200000E06521A0F1010800F8011C09980FA957
:100B3000A1EB0807FF1D00B10120411901EBEA708C
:100B4000A1693844081A401EA0612078C00602D46A
:100B50002046FFF7C5FB099828B1D4E90121904749
:100B6000206A401C20622078C00622D52046FFF76C
:100B7000B7FB1EE0002E04DBB34502DD01A8805D5B
:100B800000E03020D4E901219047206A401C206217
:100B9000761CAAF101005FEA000A0AD100F00EF902
:100BA000C0680168405CD4E901219047206A401C7C
:100BB0002062281EA5F10105DCDC07E0D4E9012153
:100BC00018F8010B9047206A401C2062381EA7F1DC
:100BD0000107F3DC2046FFF799FB032011B041E643
:100BE00001694A1C02610878704700B58FB0CDE9F1
:100BF00001310021059105497944CDE903101146E1
:100C00006846FFF7F9FB0FB000BD0000E5FFFFFFEE
:100C10000A6802F8010B0A60704710B5436913B106
:100C2000AFF3008001E0FFF782FB012010BD1278D6
:100C300000F124010A7000224A700122EDE71168D8
:100C40004FF0FF32E9E72DE9F04791460F46804625
:100C50000446002614F8015B2DB100F0A7F80068E7
:100C6000405DC007F6D12B2D02D02D2D18D0641E6B
:100C70004A463946204600F02BF927B13968A1428F
:100C800001D1C7F800804FF0020471050BD5404236
:100C9000002803DDFFF738FD0460A007BDE8F087FA
:100CA00046F48066E4E70028F8DAFFF72DFD0460DB
:100CB0006FF00040F2E700002DE9F04115460E46C6
:100CC000040002D12C6804B90BA4204600F0D2F92C
:100CD0000444207870B127463146384600F0BAF90E
:100CE0000444207810B1002004F8010B38462C6031
:100CF000BDE8F0810027F9E70000000010B5203AB8
:100D0000C0F00B80B1E81850203AA0E81850B1E8C4
:100D10001850A0E81850BFF4F5AF5FEA027C24BF7A
:100D2000B1E81850A0E8185044BF18C918C0BDE871
:100D300010405FEA827C24BF51F8043B40F8043B3A
:100D400008BF7047D20728BF31F8023B48BF11F8EF
:100D5000012B28BF20F8023B48BF00F8012B704749
:100D60004FF000020429C0F0128010F0030C3FF491
:100D700061ACCCF1040CBCF1020F18BF00F8012BE0
:100D8000A8BF20F8022BA1EB0C01FFF753BC5FEAD0
:100D9000C17C24BF00F8012B00F8012B48BF00F8EC
:100DA000012B704700487047341C002010B500F03C
:100DB00005F8001D10BD00BF495D000000487047E8
:100DC000541C002030B5B0F10A024FEA900E71F1C8
:100DD00000034EEA817EB0EB0E0061EB91014FEA19
:100DE000101E4EEA017E10EB0E0041EB11114FEA8E
:100DF000102E4EEA016E10EB0E0041EB11214FEA6E
:100E0000104E4EEA014E10EB0E0041EB114140181E
:100E100041F100014FEAD00040EA41704FEAD101B0
:100E200010EB80054FEA810444EA907444EB01041E
:100E30006D1944EB0404521BA3414FF0000348BF5B
:100E40000A3200D530BD401C41F1000130BD000028
:100E50002DE9F0411F46044603260168072A01F4E4
:100E6000006004DB08B116A505E016A503E008B193
:100E700015A500E015A521F010002060A069C01E96
:100E8000A0610FB1401EA0612046FFF729FA4FB1C3
:100E9000D4E9012138469047206A401C2062C01CDA
:100EA000206206E0206AFAE7D4E9012115F8010B77
:100EB0009047761EF8D22046FFF728FABDE8F08169
:100EC0004E414E006E616E00494E4600696E6600EE
:100ED0002DE9F05F824615468B4600270AF1010492
:100EE000B9460078302801D09DB113E014F8010B09
:100EF0000127782803D0582801D045B10AE00DB168
:100F0000102D07D1002714F8010B102502E0082549
:100F100000E00A250026B0460EE005FB080005FBB0
:100F200006F101271FFA80F801EB1046B6F5803F65
:100F300000D3B94614F8010B294600F0CEF800287A
:100F4000EBDABBF1000F05D00FB1641E00E0544690
:100F5000CBF80040B9F1000F06D0FFF7D5FB022116
:100F60000160C81EBDE8F09F48EA0640FAE70000AD
:100F70002DE9F047814616468AB0354878440DC8B9
:100F80008DE80D0032487844801C03AC0DC884E81D
:100F90000D0041F69B300844372190FBF1F290FBA5
:100FA000F1F5A5F1800501FB12041B3C02D564425A
:100FB000012000E00020DFF898A080460027FA44D6
:100FC000AAF1BE0A0EE0E0070AD03246684607EBF7
:100FD000470101230AEB810100F02EFB8DE8070099
:100FE00064107F1C002CEED1194F7F44AE3F19E0F6
:100FF000E80715D007EB04100DF1180A90E80E0071
:101000008AE80E00C068F04201D198190890324673
:10101000012306A903A800F00FFB03AB83E8070038
:101020006D10641C002DE3D14FF001033246694678
:10103000B8F1000F03A802D000F0E9FA01E000F0D7
:10104000FBFAC9E90001C9F808200AB0BDE8F08739
:10105000346B000030B503461D781DB10A4603E02D
:10106000AC4201D1181A30BD12F8014B002CF7D157
:101070005B1CF1E730B503461D783DB10A4612F816
:10108000014B1CB1AC42FAD15B1CF5E7181A30BD1C
:101090007546FFF787FEAE4605006946534620F0C9
:1010A0000700854618B020B5FFF7E0F8BDE82040FE
:1010B0004FF000064FF000074FF000084FF0000B14
:1010C00021F00701AC46ACE8C009ACE8C009ACE8C7
:1010D000C009ACE8C0098D4670473A2800D23038C4
:1010E00020F02002412A01D3A2F13700884201D327
:1010F0004FF0FF30704710B50446AFF30080204634
:10110000BDE81040FFF752B801491820ABBEFEE71A
:101110002600020070475FEA400C08BF91F0000F04
:101120004FEA8C234FEAC12243EA51514FEA1C5047
:1011300018BF00F5F0404FEA300018BF41F0004101
:101140005FEA6C5C00F02980BCF1FF3F08BF40F013
:1011500080407047130C06BF12044FF0100C4FF084
:10116000000C130E04BF12020CF1080C130F04BF85
:1011700012010CF1040C930F04BF92000CF1020C4D
:10118000D30F04BF52000CF1010C11464FF00002C6
:10119000A0F11F00A0EB0C00704711F0004F08BF3A
:1011A000704731F000413FF4D5AF0B0C06BF090486
:1011B0004FF0100C4FF0000C0B0E04BF09020CF1A5
:1011C000080C0B0F04BF09010CF1040C8B0F04BFBA
:1011D00089000CF1020CCB0F04BF49000CF1010C8B
:1011E000CCF12003A0EB0C0022FA03F302FA0CF27C
:1011F00041EA030100F10100704720F07F4C80EAD2
:10120000030023F07F47ACEB070303F57C5300F0AA
:10121000004003F1FF032DE980494FEA154B09B463
:101220004FEA144325EA0B4E24EA03480FF2042642
:1012300006EB132749083E785FEA320203FB066794
:10124000C7F5000707FB06F64FEA54374FEAD646C4
:1012500006F1020607FB066CCCF1005C4FEA1C4766
:101260002CEA074C07FB06F40CFB06F504EB1546CD
:101270004FEA961634BF00204FF000404FEAD137B6
:1012800006FB07FC4FEA1C4C0CFB0BF7D21B03FBC5
:101290000CF761EB07010CFB0EF7B0EB074072EBAC
:1012A00017420CFB08F734BFA2EB0742B2EB074230
:1012B00061EB17414FEA0C444FEA910706FB07FC2C
:1012C0004FEA1C4C0CFB0BF7B0EBC74072EB5732EC
:1012D00003FB0CF734BFA2EBC742B2EBC74261EB92
:1012E00057310CFB0EF7B0EBC70072EB57720CFBDB
:1012F00008F734BFA2EBC702B2EBC70261EB57712C
:10130000039F4FEA816141EA921104EBCC044FEA5A
:10131000D1374FEA826206FB07FC42EA90124FEA9D
:1013200080604FEA1C4C0CFB0BF7D21B03FB0CF745
:1013300061EB07010CFB0EF7B0EB074072EB1742B5
:101340000CFB08F734BFA2EB0742B2EB074261EB9C
:1013500017414FEA8C554FEA910704EB9C2406FB9A
:1013600007FC4FEA1C4C0CFB0BF7B0EBC74072EBD1
:10137000573203FB0CF734BFA2EBC742B2EBC742B4
:1013800061EB57310CFB0EF7B0EBC70072EB5772F5
:101390000CFB08F734BFA2EBC702B2EBC70261EB4C
:1013A000577115EB4C254FEA816141EA92114FEAE2
:1013B00082624FEAD13742EA901206FB07FC44F101
:1013C00000044FEA80604FEA1C4C0CFB0BF7D21B69
:1013D00003FB0CF761EB07010CFB0EF7B0EB0740CA
:1013E00072EB17420CFB08F734BFA2EB0742B2EBDB
:1013F000074261EB174115EB1C154FEA813141EAB9
:1014000092414FEA823242EA90424FEA80304FEAFC
:101410000C7644F1000448EA03434EEA0B484FF0CF
:10142000000EB2EB080C71EB030724BF624639468D
:101430004EEB0E0E4FF0000B0018524149414BEBA2
:101440000B0BB2EB080C71EB03077BF1000B24BF15
:10145000624639464EEB0E0E4FF0000B001852411B
:1014600049414BEB0B0BB2EB080C71EB03077BF123
:10147000000B24BF624639464EEB0E0E51EA0207BE
:1014800018BF46F0010616EB0E7655F1000254F136
:10149000000103D5BDE88901BDE80088BDE88901E8
:1014A000BDE80048B619524141EB0101A3F1010327
:1014B000704780807F7E7D7C7B7A797877767675C1
:1014C0007473727171706F6E6E6D6C6C6B6A6A6939
:1014D0006868676666656464636362616160605FD3
:1014E0005F5E5E5D5D5C5C5B5B5A5A59595858574C
:1014F00057565655555554545353525252515150B4
:1015000050504F4F4F4E4E4D4D4D4C4C4C4B4B4B06
:101510004A4A4A494949484848474747474646464C
:101520004545454444444443434343424242424187
:101530004141002B9C4630D477002BD01CB54FEA9C
:10154000370703B44FF010004FF01001BAF1000F4D
:1015500006D0BCF1000FDCBF40F0080040F00801ED
:101560004FF000000FBCBDE810400BF1010BBBF1C8
:10157000010F08BF5FEA170722BF12F1010211F144
:1015800001014FF0004143F1000300F0004043EA45
:1015900000007047F9D35708D0E746EA064613F132
:1015A000400F4FEA16461FDD13F1200FDFBF164331
:1015B0000A46002120335B42BED0C3F1200746EA31
:1015C000064602FA07F74FEA164646EA0706C3F14F
:1015D000200722FA03F201FA07F721FA03F14FF08C
:1015E000000342EA0702A7E746EA020646EA064681
:1015F0004FEA164646EA0106BCBF46EA0646360CE6
:101600004FF000034FF000024FF0000194E72DE986
:10161000804C9A46934670B491E8380007C831EA86
:10162000400C48BF34EA430C03D5FFF7E6FDFFF753
:1016300080FFF0BCBDE8008C2DE9804C9A469346B3
:1016400070B491E8380007C810F0804F08BF13F05D
:10165000804F03D100F005F8FFF76BFFF0BCBDE849
:10166000008C20F07F4780EA030023F07F4C07EBDB
:101670000C03A3F57C5300F00040A3F1FE0392F0AD
:10168000000F00F0B38095F0000F00F077802DE997
:1016900001494FEA11404FEA144621EA004800FB95
:1016A00006FC24EA064708FB06F607FB08F800FBE1
:1016B00007F718EB06484CEB164C4FEA124B18EBA9
:1016C00007484FEA15464CEB174022EA0B4E0BFB3E
:1016D00006FC25EA06470EFB06F607FB0EFE0BFB93
:1016E00007F71EEB064E4CEB164C4FF000061EEBB8
:1016F000074E4CEB174B18EB0B0840F1000018EBB2
:101700000E0B58EB000840F100008F1A4FF000015B
:101710003CBFC943661B14BFB5EB040C00213CBFA2
:10172000C943F61B4FEA17444EEA8E0E27EA0445DA
:101730004FEA1C4704FB07622CEA074C05FB07F73E
:101740000CFB05F604FB0CFC16EB074642EB1742BC
:1017500016EB0C4642EB1C421BEB060658EB020252
:10176000414146EA9E0601D5BDE80189B6195241BC
:1017700041EB0101A3F10103BDE801894FEA1445E2
:101780004FEA114724EA054621EA074C05FB07F416
:1017900006FB07F70CFB06F105FB0CFC11EB074100
:1017A00044EB17444FEA124711EB0C4144EB1C4445
:1017B00022EA074C05FB07F206FB07F70CFB06F6CF
:1017C00005FB0CFC16EB074642EB174216EB0C46EA
:1017D00042EB1C456A1854F1000148BF7047B61926
:1017E000524141EB0101A3F10103704795F0000F55
:1017F00037D04FEA11424FEA144721EA024624EA61
:10180000074C02FB07F106FB07F70CFB06F402FB93
:101810000CFC14EB074441EB17414FEA154714EB5E
:101820000C4441EB1C4125EA074C02FB07F506FB83
:1018300007F70CFB06F602FB0CFC16EB074645EB24
:10184000174516EB0C4645EB1C42121951F10001ED
:1018500048BF7047B619524141EB0101A3F10103A2
:1018600070474FEA14454FEA114724EA054621EA3A
:10187000074C05FB07F106FB07F70CFB06F24FF0E0
:10188000000605FB0CFC12EB074241EB174112EB83
:101890000C4251EB1C4148BF7047921841EB0101CB
:1018A000A3F101037047FEE77047000006490020DE
:1018B000C8610648016941F004010161016941F014
:1018C00040010161704700004003002000200240F9
:1018D000064A0021D16106490A6942F002020A6102
:1018E0004861086940F040000861704740030020EB
:1018F00000200240044B0022DA61044A136943F0DD
:101900000103136101807047400300200020024062
:1019100014480022C168CB06134904D5CA6942F0B5
:101920000202CA611022C3685B0705D5CB6943F088
:101930000103CB6142F00402C369DB0707D0CB6926
:1019400043F00403CB61C16921F00101C161A2F53B
:101950008071013901D0C2607047C16921F0010175
:10196000C1617047002002404003002070B5054669
:1019700000F062FA0646114C09E0681C07D025B158
:1019800000F05AFA801BA84201D9032070BDE0681C
:10199000C007F2D1E068800601D52020E060E06851
:1019A000C00605D4E069C00702D1E068400703D54E
:1019B000FFF7AEFF012070BD002070BD0020024087
:1019C00010B586B0044600F02DF90120CDE90240A3
:1019D00001900020009004A9684600F085F800F00E
:1019E000D7F806B010BD0088704770B50C460546A4
:1019F00000F018F92246E3172946012000F0D2F83A
:101A0000BDE8704000F0C4B810B590F82110002275
:101A1000022905D00421816380F82020012010BD17
:101A200001680B6823F00E030B6001680B6823F05C
:101A300001030B6090F84030C46B012101FA03F3FD
:101A4000636080F8211080F82020104610BD00004F
:101A500010B590F821100024022903D004218163DD
:101A600001243DE001680A6822F00E020A60016864
:101A70000A6822F001020A601A4A0168914201D103
:101A8000012121E0174A1432914201D110211BE0BB
:101A9000144A2832914201D1891515E0114A3C328D
:101AA000914201D189140FE00E4A5032914202D185
:101AB0004FF4803108E00B4A6432914202D14FF476
:101AC000801101E04FF08071064A083A516001210F
:101AD00080F82110002180F82010416B01B1884767
:101AE000204610BD080002402DE9F0470546264873
:101AF0000F460126017E01290FD001218146017682
:101B00002868DFF888804CF25034022808D0A246BA
:101B10002046FFF72BFFA8B131E00220BDE8F08797
:101B20002046FFF723FF08BB0120FFF7BFFE20463A
:101B3000FFF71CFFD8F81010064621F00401C8F882
:101B400010101CE04FF0FF303860AC6811E0204608
:101B5000FFF7BEFE5046FFF709FFD8F81010060049
:101B600021F00201C8F8101001D03C6007E004F534
:101B70008064D5E9020100EB8120A042E7D8002172
:101B800089F818103046C9E74003002000200240C1
:101B90000348016941F080010161002070470000A5
:101BA000002002402DE9F05F07461C4888460024CB
:101BB000017E15461E46012909D001218146017684
:101BC0004CF2503A5046FFF7D1FE18B122E0022005
:101BD000BDE8F09F012F02D0022F00D00427D3468A
:101BE000DFF83CA0220128463146FEF751FB81B2C6
:101BF00008EB4400FFF77EFE5846FFF7B7FEDAF821
:101C0000102022F00102CAF8102018B9641CE4B2B6
:101C1000BC42E7D3002289F81820D9E7400300200E
:101C200000200240064900200A69120607D5054A2D
:101C30004A60054A4A600969090600D501207047D3
:101C40000020024023016745AB89EFCD2DE9F84F15
:101C5000DFF8B8910024A9F1040B23460F2709F1FE
:101C6000040AABF1040EC9E00125A5402A40AA42AE
:101C70007DD1674ED1F804C0ACEB0608B44532D034
:101C800014DCBCF1030F3AD009DCBCF1000F2AD000
:101C9000BCF1010F1CD0BCF1020F31D11DE0BCF131
:101CA000110F17D0BCF1120F2AD119E0B8F5881F17
:101CB00019D006DCB8F5803F15D0B8F5801F1FD1CC
:101CC00011E0B8F5001F0ED0B8F5041F18D10AE0D6
:101CD000CB6815E0CB681B1D12E0CB6808330FE022
:101CE000CB680C330CE08B682BB1012B4FF0080351
:101CF00003D0456104E0042302E0056100E0002315
:101D0000FF2A01D8064601E000F104064FEA8405E7
:101D100001D9A5F12005D6F8008007FA05FC28EACC
:101D20000C0803FA05F548EA0508C6F800804D6876
:101D3000ED0062D5374DAE6946F00106AE61AD6982
:101D400024F0030605F001050095334D06EB050C64
:101D5000DCF80850A607360F07FA06F825EA08054A
:101D6000DFF8B880404503D14FF0000817E044E0A9
:101D7000DFF8AC80404502D14FF001080FE0DFF8FA
:101D8000A480404502D14FF0020808E0DFF89880B7
:101D9000404502D14FF0030801E04FF0040808FA73
:101DA00006F848EA0508CCF808804D68D9F80060C4
:101DB000ED024D4601D5164300E096432E604D6876
:101DC000DAF80060AD02554601D5164300E09643AF
:101DD0002E604D68DBF80060AD035D4601D516430B
:101DE00000E096432E604D68DEF80060ED03754616
:101DF00001D5164300E096432E60641C0D682A4608
:101E0000E5407FF431AFBDE8F88F000008040140E1
:101E100000001110001002400000014000080140C5
:101E2000000C014000100140001401400AB10161A2
:101E300070470904FBE70000014880687047000014
:101E40005C00002070B5040025D094F83D0000250A
:101E500020B984F83C50204600F036FC242084F859
:101E60003D002068016821F00101016020680168DF
:101E700041F4004101602068016821F400410160E3
:101E800000F0D0FD4D4A6168914201D84C4900E014
:101E90004C49884201D2012070BD4B492368B0FBF8
:101EA000F1F15E6826F03F060E435E606368934280
:101EB00006D94FF4967359434FF47A73B1FBF3F19B
:101EC0002368491C1E6A26F03F0631431962616887
:101ED000914210D84900401EB0FBF1F2521CC2F3EF
:101EE0000B02042A01D2042022E0B0FBF1F0401CD6
:101EF000C0F30B001CE0A268F2B301EBC10303EBDB
:101F00000116431EB3FBF6F35B1C43F480431B0531
:101F100049D092B301EBC10202EB0111401EB0FBAC
:101F2000F1F0401CC0F30B0040F4804040F400404E
:101F30002168CA694CF6FF739A431043C861D4E91B
:101F4000071001432068026822F0C00211430160BB
:101F5000D4E9030101432068826848F2FF339A43C1
:101F600011438160D4E9050108432168CA6822F061
:101F7000FF021043C86001E00EE016E0206801682F
:101F800041F0010101602564202084F83D002563B3
:101F900084F83E50002070BD01EB4106431EB3FBA8
:101FA000F6F35B1CB3E70120C2E701EB4101401EE1
:101FB000B0FBF1F0401CC0F30B00B7E7A0860100B6
:101FC00080841E0000093D0040420F002DE9F84FBB
:101FD0000025DDF82890984617468A460446009565
:101FE000FFF72AFF064694F83D0020287AD11923EE
:101FF000012286492046009601F04EFC0028F5D1CA
:1020000094F83C0001286DD0012084F83C00206841
:102010000168C90703D1016841F00101016020682E
:10202000016821F400610160222084F83D00102045
:1020300084F83E0025646762A4F82A80608D2085BC
:102040007348E06233464A465146204601F062FA40
:1020500000287CD1208DDFF8BC81202768B10128C1
:1020600014D00228206801681ED041F4806101600C
:102070002068416980690090BBE0206841698169FE
:102080000091016841F400710160B2E020680168CC
:1020900021F48061016072B6206841698169009114
:1020A000016841F400710AE041F40061016072B618
:1020B0002068416981690091016821F480610160B3
:1020C00062B696E0032865D801280CD002284B465A
:1020D0004FF000024146204600960BD001F0DCFB99
:1020E000A8BB0CE090E032464946204601F07AFC5D
:1020F00068BB71E001F0D0FB48BB72B633E02068EA
:10210000016821F48061016072B620680069616A2B
:102110000870606A401C6062208D401E2085608DC2
:10212000401E60853C4846F2A8110068B0FBF1F003
:10213000C0EBC00000EB80000090401E009007D074
:1021400020684069C04340070DD50098F5E727E0B7
:1021500044F8305F6773A573206940F02000206168
:1021600062B625731CE02068016841F400710160CB
:1021700020680069616A0870606A401C6062218D95
:10218000491E2185618D491E618562B621680969F4
:10219000017025E032464946204601F023FC10B18B
:1021A0000120BDE8F88F20680069616A0870606AE4
:1021B000401C6062208D401E81B22185608D401ED2
:1021C000608520684269D243520712D4032903D1A3
:1021D000016821F48061016020680069616A08700B
:1021E000606A401C6062208D401E2085608D401E0C
:1021F0006085208D00287FF465AF84F83D7084F8F9
:102200003E5084F83C50CCE70220CAE702001000A0
:102210000000FFFF04000100500000202DE9F84FEE
:102220001F4690468A460446DDF82890FFF704FED4
:10223000054694F83D0020287FD11923012240490A
:102240002046009501F028FB002876D194F83C0048
:10225000012872D0012084F83C0020680168C90779
:1022600003D1016841F0010101602068016821F497
:1022700000610160212084F83D00102084F83E00B8
:1022800000262664C4F824806785608D20852D484B
:10229000E0622B464A465146204601F0B1F990B91A
:1022A000206841698069009036E02A464946204608
:1022B00001F0D0FB50B1206C042804D120680168E3
:1022C00041F4007101600120BDE8F88F606A216867
:1022D00000780861606A401C6062618D491E6185FA
:1022E000218D491E89B2218522685369DB435B0732
:1022F0000BD451B100781061606A401C6062608D3F
:10230000401E6085208D401E20852A464946204675
:1023100001F096FA0028CED1208D0028C5D154F8BE
:102320003D0B016841F400710160202004F81E0992
:10233000E67766770020C7E7FFE70220C4E70000E2
:10234000020010000000FFFF2DE9FF4F83B00025C1
:10235000DDE910799A4693460446DDF848800095F9
:10236000FFF76AFD064694F83D0020287CD119232A
:10237000012285492046009601F08EFA0028F5D109
:1023800094F83C0001286FD0012084F83C002068BC
:102390000168C90703D1016841F0010101602068AB
:1023A000016821F400610160222084F83D00402092
:1023B00084F83E0025646762A4F82A90608D208529
:1023C0007248E062CDE9008653465A462046049999
:1023D00001F064F900287DD1208DDFF8B491202729
:1023E00068B1012814D00228206801681ED041F489
:1023F000806101602068416980690090B6E02068D2
:10240000416981690091016841F400710160ADE0AA
:102410002068016821F48061016072B6206841691A
:1024200081690091016841F400710AE041F40061A2
:10243000016072B62068416981690091016821F4E8
:102440008061016062B691E0032868D801280CD051
:10245000022843464FF000024946204600960FD01E
:1024600001F01AFAB0BB10E08BE03246414620463C
:1024700001F0B8FA70BB20680069616A08706CE00E
:1024800001F00AFA30BB72B634E02068016821F42A
:102490008061016072B620680069616A0870606AD4
:1024A000401C6062208D401E2085608D401E60852E
:1024B000384846F2A8110068B0FBF1F0C0EBC0004C
:1024C00000EB80000090401E009008D0206840691A
:1024D000C04300E029E040070CD50098F3E744F83A
:1024E000305F6773A573206940F02000206162B6F9
:1024F00025731AE02068016841F4007101602068CA
:102500000069616A0870606A401C6062218D491E22
:102510002185618D491E618562B621681BE03246C6
:102520004146204601F05EFA18B1012007B0BDE82F
:10253000F08F20680069616A0870606A401C606200
:10254000218D491E2185618D491E618521684A6959
:10255000D24352070AD409690170606A401C606264
:10256000208D401E2085608D401E6085208D0028B6
:102570007FF46AAF84F83D7084F83E5084F83C5094
:10258000D4E70220D2E70000020010000000FFFFA5
:1025900004000100500000202DE9FF4F83B09A464F
:1025A000DDE9119793460446DDF84080FFF744FCCF
:1025B000054694F83D0020287FD119230122404987
:1025C0002046009501F068F9002876D194F83C0087
:1025D000012872D0012084F83C0020680168C907F6
:1025E00003D1016841F0010101602068016821F414
:1025F00000610160212084F83D00402084F83E0005
:1026000000262664C4F82480A4F82A90608D2085D2
:102610002C48E062CDE9007553465A46204604999D
:1026200001F0BAF870B930E02A463946204601F088
:1026300011FA58B1206C042804D12068016841F4D3
:1026400000710160012007B0BDE8F08F606A216869
:1026500000780861606A401C6062218D491E89B261
:102660002185628D521E628522685369DB435B07B8
:102670000BD469B100781061606A401C6062208DE3
:10268000401E2085608D401E6085208D0028CBD1A6
:102690002A463946204601F0D3F80028CAD154F81A
:1026A0003D0B016841F400710160202004F81E090F
:1026B000E67766770020C6E7FFE70220C3E7000061
:1026C000020010000000FFFF10B586B0002100914D
:1026D00001910291039100680F4988421AD10F4C71
:1026E000A06940F00800A061A069694600F00800F8
:1026F0000490C0200090122001900320039008480D
:10270000FFF7A4FAE06940F40010E061E06900F42A
:102710000010049006B010BD0054004000100240AC
:10272000000C0140024881680278114481607047C2
:102730005C000020074810B5016841F010010160FD
:10274000032000F0A7F80F2000F006F800F050F882
:10275000002010BD0020024030B505461F4887B05C
:10276000C16941F00401C161C06906A900F004001B
:10277000009001A800F036F90498B0B100F052F9C9
:1027800040001749174AB0FBF1F11748491E026093
:10279000416040F2E7320021C0E90321816081619C
:1027A00000F018FB040003D015E000F03BF9E8E767
:1027B0000D4800F051FB04000DD11E2000F03CF844
:1027C000102D07D2002229461E2000F043F80748AA
:1027D000056000E0012407B0204630BD0010024033
:1027E00040420F00000800409002002060000020DE
:1027F0000F4808B5816941F001018161816901F0EB
:1028000001010091C16941F08051C161C06900229C
:1028100000F0805000900F21901E00F01BF805483A
:10282000416821F0E06141F00071416008BD0000A5
:102830000010024000000140002809DB00F01F02E8
:10284000012191404009800000F1E020C0F8001112
:1028500070470000F0B40E4B1B680C46C3F3022314
:10286000C3F10705042D00D90425191D072901D23C
:10287000002300E0DB1E012606FA05F1491E214077
:1028800099409E40761E16403143F0BC01F017BEC1
:102890000CED00E0064900F0070208684FF6FF0360
:1028A000184040EA0220034A1043086070470000C5
:1028B0000CED00E00000FA052DE9F0470F46050099
:1028C00061D0434E306800F00700B84209D230684A
:1028D00020F0070038433060306800F00700B8424D
:1028E00051D128683B4C810712D5400703D5606859
:1028F00040F4E06060602878000703D5606840F429
:10290000605060606068A96820F0F0000843606073
:102910002878C00728D06868012810D021680228CC
:1029200010D0890700292EDA616821F003010143E4
:102930006160FFF781FA804641F288390DE0216835
:102940008903EFE78901EDE7FFF776FAA0EB0801CD
:10295000494502D90320BDE8F0876068696800F046
:102960000C00B0EB810FEFD1306800F00700B842E7
:102970000BD9306820F0070038433060306800F031
:102980000700B84201D00120E5E72878400705D5C7
:102990006068E96820F4E060084360602878000718
:1029A00006D56068296920F4605040EAC100606083
:1029B00000F058F86168084AC1F30311515CC8403F
:1029C0000649086006480068FFF7C6FE0020C2E717
:1029D0000020024000100240D4790008500000207E
:1029E000600000200F2202600C4A536803F00303CA
:1029F0004360536803F0F0038360536803F4E063BB
:102A0000C36052684FF4E06303EAD20202610448F3
:102A1000006800F0070008607047000000100240E6
:102A2000002002400448054900684968044AC1F38F
:102A30000221515CC8407047500000200010024045
:102A4000E47900080448054900684968044AC1F36C
:102A5000C221515CC8407047500000200010024065
:102A6000E47900080E4A51680E4801F00C03042B6B
:102A700011D0082B0FD10C48C1F38343C903C05CAC
:102A80000AD55168084AC1F34041921E515C054A7B
:102A90005043B0FBF1F070470449484370470000D1
:102AA0000010024000127A00167A000800093D006A
:102AB0002DE9F84F040070D02078C04DC00749D0F0
:102AC0006868C0F38100012807D06868C0F38100FE
:102AD000022809D16868C00306D52868800339D563
:102AE00060680028E7D035E06068B0F5803F0BD023
:102AF00010B1B0F5A02F11D0286820F480302860E4
:102B0000286820F4802002E0286840F480302860A3
:102B1000606890B1FFF790F906460AE0286840F433
:102B200080202860F0E700BFFFF786F9801B64284B
:102B300073D828688003F7D50CE0FFF77DF90646C7
:102B400005E000BFFFF778F9801B6428F0D82868FB
:102B50008003F7D420789A4E80074FF001094FF098
:102B6000000839D5686810F00C0F07D06868C0F30A
:102B70008100022809D16868C00306D4286880074C
:102B800014D52069012808D110E02069B0B1C6F839
:102B90000090FFF751F9074605E00AE1FFF74CF90D
:102BA000C01B0228C4D828688007F7D52868616947
:102BB00020F0F80040EAC10028600DE0C6F800806F
:102BC000FFF73AF9074604E0FFF736F9C01B022881
:102BD00023D828688007F7D4207800072CD57948B7
:102BE000A169D9B1C0F80090FFF726F9074604E0C3
:102BF000FFF722F9C01B02280FD8686A8007F7D5B3
:102C000071484FF4FA510068B0FBF1F0009000BF3A
:102C10000098411E0091FAD20EE080E0C0F80080DA
:102C2000FFF70AF9074604E0FFF706F9C01B022880
:102C300075D8686A8007F7D42078400760D5E869BE
:102C40000027C00008D4E86940F08050E861E869D6
:102C5000012700F0805000905C480168C90513D43A
:102C60000168834641F480710160FFF7E5F8824610
:102C700006E000BFFFF7E0F8A0EB0A0064284ED89A
:102C8000DBF80000C005F5D5E06801280AD008B1DE
:102C9000052813D0286A20F001002862286A20F055
:102CA000040002E0286A40F001002862E06841F276
:102CB000883B98B1FFF7C0F882460BE0286A40F0E5
:102CC00004002862EEE700BFFFF7B6F8A0EB0A01A8
:102CD00059455AD8286A8007F6D50CE0FFF7ACF8BA
:102CE000824605E0FFF7A8F8A0EB0A0159454CD849
:102CF000286A8007F6D41FB1E86920F08050E861A7
:102D0000E06988B36968C1F38101022944D00228CF
:102D1000C6F8608004D0FFF78FF8044638E034E04E
:102D2000FFF78AF8074604E0FFF786F8C01B022881
:102D30002BD828688001F7D4206AB0F5803F05D1F0
:102D40006868A16820F4003008436860D4E908018D
:102D50000843696821F4741108436860C6F86090FC
:102D6000FFF76AF8044606E025E000BFFFF764F8C5
:102D7000001B022809D828688001F7D51BE000BF96
:102D8000FFF75AF8001B022802D90320BDE8F88F8C
:102D900028688001F4D40EE00128F7D06868226A20
:102DA00000F48031914204D1616A00F470108842CD
:102DB00001D00120EAE70020E8E70000001002400F
:102DC0000000424280044242500000200070004057
:102DD0007047704710B5040003D094F83D0010B15F
:102DE00007E0012010BD002084F83C00204600F0E0
:102DF0001FF8022084F83D00211D206801F0F6F93B
:102E0000012084F8460084F83E0084F83F0084F8EE
:102E1000400084F8410084F8420084F8430084F8BC
:102E2000440084F8450084F83D00002010BD0000F7
:102E300008B500680649884208D10648C16941F0D2
:102E40000201C161C06900F00200009008BD0000ED
:102E5000000400400010024090F83D10012901D00C
:102E600001207047022180F83D100168CA6842F0D5
:102E70000102CA6000680B49884208D0B0F1804F57
:102E800005D00949884202D00849884204D18168A6
:102E900001F00701062903D0016841F0010101603A
:102EA00000207047002C0140000400400008004052
:102EB000704770B50446006801694FF00005C943CA
:102EC000890715D4C168C943890711D4E91E016176
:102ED00001202077206880698007204602D0FFF714
:102EE000E7FF04E000F0D0F8204600F0CEF82577A8
:102EF00020680169C943490717D4C168C943490714
:102F000013D46FF0040101610220207720688069EA
:102F100010F4407F204602D0FFF7CAFF04E000F023
:102F2000B3F8204600F0B1F8257720680169C9435D
:102F3000090716D4C168C943090712D46FF0080104
:102F40000161042020772068C0698007204602D0F4
:102F5000FFF7AEFF04E000F097F8204600F095F888
:102F6000257720680169C943C90617D4C168C943D8
:102F7000C90613D46FF01001016108202077206882
:102F8000C06910F4407F204602D0FFF791FF04E0B3
:102F900000F07AF8204600F078F82577206801697B
:102FA000C943C90708D1C168C943C90704D1891EEB
:102FB0000161204600F0B8F820680169C94309069C
:102FC00009D4C168C943090605D46FF080010161C5
:102FD0002046FFF7FDFE20680169C943490609D470
:102FE000C168C943490605D46FF04001016120461C
:102FF00000F0A4F820680169C94389060BD4C168B0
:10300000C943890607D46FF0200101612046BDE85D
:103010007040FFF7DEBE70BD10B586B00021009194
:1030200001910291039100681349884221D113480C
:10303000816941F004018161816901F00401049119
:10304000816941F0080181618069022400F0080073
:103050000490C020CDE90004694609480394FEF7B6
:10306000F5FD0120CDE90004694606480394FEF70A
:10307000EDFD06B010BD000000040040001002404D
:1030800000080140000C01407047704710B504462D
:10309000022249B104290ED0082913D094F8410026
:1030A000012816D0012010BD94F83E000128F9D166
:1030B00084F83E200FE094F83F000128F2D184F814
:1030C0003F2008E094F840000128EBD184F840202C
:1030D00001E084F841200122206801F0BDF80F4989
:1030E0002068884203D1426C42F400424264206866
:1030F000884208D0B0F1804F05D00949884202D0FB
:103100000849884204D1816801F00701062903D0EB
:10311000016841F001010160002010BD002C014058
:10312000000400400008004000680349884201D1C3
:10313000FFF7F8BA7047000000080040704770477A
:1031400070470000F8B5016804460868CA684B6912
:1031500010F00F0F4FF0000559D003F0010602F4F4
:103160009077374365D0C10705D0D10503D5616C91
:1031700041F001016164410705D5D90703D0616CB5
:1031800041F002016164810705D5D90703D0616C64
:1031900041F004016164010707D502F020013143C9
:1031A00003D0616C41F008016164616C00293AD080
:1031B000800604D5900602D5204601F089F82068E3
:1031C0004069616CC0F38010090700D460B32046E9
:1031D00001F057F820684069400621D52068143076
:1031E00050E8001F21F0400140E80012002AF5D10C
:1031F000E06BA8B16D494163E06BFEF729FC002844
:1032000011D0E06B416B01B0BDE8F0400847830688
:103210000FD593060DD52046BDE8F84001F058B80B
:103220002046FFF78DFFF8BD2046FFF789FF656454
:10323000F8BD266B2023012E7CD1C6067AD5D60692
:1032400078D508684868009048694FF00206400643
:1032500040D5E16B086840680004000CE8D0A28DFE
:103260008242E5D9E085886920282DD020680C307D
:1032700050E8001F21F4807140E80012002AF5D1C7
:103280002068143050E8001F21F0010140E80012CE
:10329000002AF5D12068143050E8001F21F04001C9
:1032A00040E80012002AF5D184F8423025632068F6
:1032B0000C3050E8001F21F0100140E80012002AF5
:1032C000F5D1E06BFEF7A0FB6663A08DE18D401A9F
:1032D00081B22AE0A08DE18D401A81B2E08D0028F4
:1032E000A6D00029A4D022680C3252E8000F20F4A6
:1032F000907042E80007002FF5D12068143050E8A4
:10330000002F22F0010240E80027002FF5D184F8B9
:103310004230256320680C3050E8002F22F0100264
:1033200040E80023002BF5D166632046FFF707FF36
:10333000F8BDFFE705062BD5150629D594F8410001
:103340002128F5D1A068B0F5805F01D12069B0B126
:10335000206A411C2162216800784860E08C401E90
:103360000004000CE084E3D12068C16821F08001F2
:10337000C1602068C16841F04001C160D8E7206A9F
:103380000088C0F308004860206A801C2062E5E7DE
:103390004006CDD55006CBD5CA68204622F0400263
:1033A000CA6084F8413000F09BF8C1E7734200081E
:1033B00070B5040004D094F84100002510B106E077
:1033C000012070BD84F84050204600F023F82420EE
:1033D00084F841002068C16821F40051C160204692
:1033E00000F0D8FF2068016921F490410161206854
:1033F000416921F02A0141612068C16841F400510E
:10340000C1606564202084F8410084F8420065634F
:10341000002070BD30B585B0002400940194029462
:1034200003940068184988422BD11848C16941F4B7
:103430000031C161C16901F400310491816941F039
:10344000040181618069124D00F0040004900420A1
:103450000090022001900320039069462846FEF761
:10346000F5FB0820CDE90004694628460294FEF7E2
:10347000EDFB002205212620FFF7ECF92620FFF7BF
:10348000DBF905B030BD00000044004000100240F0
:103490000008014090F84230202B01D002207047F4
:1034A00021B11AB10023036300F0D0BF012070479F
:1034B00010B509490068096888420BD10748C07AED
:1034C00002F050F805490122BDE810400B310248D6
:1034D000FFF7E0BF10BD0000240200200000002024
:1034E0007047FEE701684A69D24352050FD46FF472
:1034F00080624A61002140F8301F202242738173AC
:10350000026942F004020261017301207047002049
:10351000704700002DE9F84F0446C06A1E469346E6
:103520000D4621680A6842F480620A60082807D0C4
:10353000012805D010F5803F02D0206B112804D15E
:103540002068016841F4807101604FF001195B4609
:10355000002249462046009600F09EF94FF400787C
:1035600040B120680068C00501D5C4F84080032040
:10357000BDE8F88F2069DFF884A0B0F5804F0FD048
:103580000620216800EAD51747F0F00008613346AD
:103590005A460AF10601204600F0C6F958BB03E07E
:1035A000E8B240F001001CE02168E8B2086133464F
:1035B0005A465146204600F0B7F9E0B92068416903
:1035C00081690091016841F4807101605B460022CD
:1035D00049462046009600F05FF90028C1D147F027
:1035E000F1002168086133465A465146204600F0F2
:1035F0009BF90028BCD00120BAE7000002000100BE
:10360000F8B50446C06A1E460D461746082807D07E
:10361000012805D010F5803F02D0206B122804D17C
:103620002068016841F480710160134600224FF068
:1036300001112046009600F02FF940B12068006883
:10364000C00502D54FF4007020640320F8BD206946
:10365000B0F5804F0ED00620216800EAD51040F06A
:10366000F000086133463A460B49204600F05CF909
:1036700078B902E005F0FE0000E0E8B221680861D8
:10368000054933463A46891F204600F04DF9002887
:10369000DCD00120F8BD0000080001002DE9F84F42
:1036A0000446006889460B9D01689846174641F418
:1036B000806101602068016841F4807101600095BB
:1036C0004FF0011B0022594620460A9B00F0E4F807
:1036D0004FF4007A40B120680068C00501D5C4F8F5
:1036E00040A00320BDE8F88F216809F0FE000861C2
:1036F0002B46284920460A9A00F016F9F0BB2068AC
:103700004169806900902A4620460A9900F0A2F992
:1037100040B1206C04283AD12068016841F400715E
:10372000016034E0FEB2B8F1010F09D02168380A17
:1037300008612A4620460A9900F08CF90028E8D151
:10374000206806612A4620460A9900F083F900287D
:10375000DFD12068016841F480710160009500228A
:10376000594620460A9B00F097F80028B3D12168FB
:1037700009F0FF0040F00100086100E007E02B467F
:10378000044920460A9A00F0CFF80028AAD0012068
:10379000A8E70000020001002DE9F8430446006894
:1037A0000D46DDE9089701689846164641F4807198
:1037B00001604B4600224FF001112046009700F0B7
:1037C0006BF848B120680068C00502D54FF400705E
:1037D00020640320BDE8F883216805F0FE0008613D
:1037E0003B464A461549204600F09EF888B92068B5
:1037F0004169806900903A464946204600F02AF91E
:1038000048B1206C042804D12068016841F400719B
:1038100001600120DEE7F5B2B8F1010F09D021689F
:10382000300A08613A464946204600F013F900285C
:10383000E7D1206805610020CCE70000020001000C
:1038400070B516460D4604461EE02046FFF74AFEB8
:1038500008B1012070BD681C16D0FEF7EDFA801B80
:10386000A84200D885B920684069C04340070BD5FD
:10387000002044F8300F20216173A073216941F0CA
:10388000200121612073E4E720684069C0434007BC
:10389000DBD4002070BD00002DE9F04798461746A4
:1038A0000D460446C1F30746DDF820902AE000BF2C
:1038B000B8F1FF3F26D0FEF7BFFAA0EB0901414562
:1038C00002D8B8F1000F1DD12068012E16D08069F2
:1038D00025EA00000004000C12D00020B84211D1EB
:1038E000002044F8300F20216173A073216941F05A
:1038F0002001216120730120BDE8F0874069E7E7DE
:103900000120EBE72068012E0AD0806925EA00003B
:103910000004000C06D00020B842C9D00020EBE71C
:103920004069F3E70120F7E72DE9F047984616468E
:103930000D4604464FF000094FF0200AC1F3074737
:1039400023E020684069C043400515D42068016821
:1039500041F40071016021686FF480604861C4F82F
:10396000309084F83DA084F83E90216C41F0040131
:10397000216484F83C9021E0701C06D0FEF75CFACC
:10398000A0EB0800B04203D816B1012F1FD021E0F0
:103990002068012F15D0806925EA00000004000C82
:1039A00018D000BF44F8309F84F80DA084F80E9022
:1039B000216941F02001216184F80C900120BDE8CB
:1039C000F087406925EA00000004000CEAD1206875
:1039D000406901E02068806925EA00000004000CCD
:1039E000AFD1ECE72DE9F041002590460E460446A4
:1039F000202728E04069C043C0060CD454F8301B8F
:103A00006FF01000486144F810596777A577206A75
:103A10002062257714E0FEF70FFAA0EB0800B04211
:103A200000D886B920684069C04340060BD544F8E9
:103A3000305F6773A573206940F020002061257313
:103A40000120BDE8F08120684169C9434906D1D40D
:103A50000020F6E770B516460D4604461EE02046E7
:103A6000FFF740FD08B1012070BD681C16D0FEF7BD
:103A7000E3F9801BA84200D885B920684069C0439B
:103A800000060BD5002044F8300F20216173A0738D
:103A9000216941F0200121612073E4E72068406939
:103AA000C0430006DBD4002070BD2DE9F04186B094
:103AB0008046012504A8CDE9000564242B46752223
:103AC000D02102944046FEF73FFC9DF81000682884
:103AD00003D0012006B0BDE8F081002703AE8DF8C9
:103AE0000C700096CDE9015401236B22D021404691
:103AF000FEF752FD07208DF80C000096CDE9015429
:103B000001231922D0214046FEF746FD8DF80C70A6
:103B10000096CDE9015401231C22D0214046FEF736
:103B20003BFD8DF80C700096CDE9015401231B225A
:103B3000D0214046FEF730FD0020CBE7F0B585B040
:103B40000C466423062203A98DE80E0001233B22C4
:103B5000D021FEF7F9FBBDF80C0040BA00B220807E
:103B6000BDF80E1049BA0EB26680BDF8101049BA01
:103B70000DB2A58003F014FA6FF00D073A4603F07A
:103B80006AFEC4E90201304603F00AFA3A4603F03D
:103B900062FEC4E90401284603F002FA0022034B46
:103BA00003F0A6F8C4E9060105B0F0BD0029CC4039
:103BB00030B585B000241A4800940194029403940F
:103BC000816941F020018161816901F02001049146
:103BD000816941F004018161816901F0040104916E
:103BE000816941F00801816180690E4D00F0080093
:103BF0000490012210212846FEF718F90022202106
:103C00002846FEF713F9302000900120CDE9010489
:103C10000220039069462846FEF718F805B030BD2B
:103C200000100240000C0140F0B5244887B0C16983
:103C300041F00201C16100241C216846FCF7F8FC38
:103C400020481F4D41F63F760560C0E901646327B7
:103C5000C0E903748461FFF7BDF808B172B6FEE7EE
:103C6000174828300660001D0760154946F66800B1
:103C700018310860091D08602C601148001D04609F
:103C8000001D0460001D04600D4814300460081D10
:103C90000460001D04600A4834300460001D0460A4
:103CA000001D0460001D0460054848300460001DCC
:103CB00004600448FFF7B0F907B0F0BD00100240FF
:103CC00000040040DC010020FEE7FEE71FB51C4CAD
:103CD000E07900F0C7FD1B4E4FF0FF3700F0FAFD12
:103CE00018490546A1F1E800FFF728FFD6E90601CB
:103CF000CDE90201D6E90401CDE900011048D6E979
:103D0000022311A14030FCF7D7FA3946606A00F06F
:103D100031FE38B92A4611A11648FCF7CDFA606A7F
:103D200000F09EFE134800F047F9A06A00F058FF2B
:103D3000206B00F055FFA089284400F0ADFDCDE7D1
:103D4000000000207002002025302E316620253032
:103D50002E31662025302E3166000000402564207B
:103D60005461736B20312069732072756E6E696EB9
:103D7000670A0000060100201CB5244C207A00F0E0
:103D800071FD4FF0FF3A00BF01F0AAFC00F0A2FD68
:103D900081465146606A00F0EDFD38B94A461CA1E3
:103DA0002148FCF789FA606A00F05AFE1E4800F0CC
:103DB00003F9012000F09AF88046012000F078F81D
:103DC0000546012100F03EF80746284600F052F86B
:103DD00006460121404600F035F80546404600F011
:103DE00049F8024610482B4610A11E38CDE900675D
:103DF000FCF762FAE06A00F0F3FE606B00F0F0FEA0
:103E0000E18909EB010000F047FDBDE7000000205B
:103E1000402564205461736B2032206973207275D1
:103E20006E6E696E670A000006010020543A256430
:103E30002E25644320483A25642E256425252052EA
:103E40004800000070B50D46044600F013F803F07A
:103E500057FB214603F04CFC044629460A2000F09B
:103E60006DF803F065FB214603F076FBBDE870407A
:103E700003F026BB03F008BB31B582B000204FF43D
:103E80007A740A4DCDE90040012302AA80212868F6
:103E9000FEF7C4F90094032301AA80212868FEF7E5
:103EA00095F8BDF8040040BA3EBD0000580000205F
:103EB00010B508B1E52000E0F520FFF7DDFF03F0C5
:103EC00086F86FF00F0203F0C6FC0022054B03F0EA
:103ED00091F80022044B02F05BFEBDE8104002F0B6
:103EE00025BE000000405F40000018C010B508B1BA
:103EF000E32000E0F320FFF7BFFF03F068F86FF066
:103F00000F0203F0A8FC064A064B03F073F8064ABA
:103F1000064B02F03DFEBDE8104002F007BE000077
:103F2000D7A3703D0AF76540CDCCCCCCCC6C47C054
:103F30000149086070470000580000200346012234
:103F400001E05843521C8A42FBD370473EB50B4DEB
:103F5000E7204FF47A748DF808000094012302AA38
:103F600080212868FEF75AF90094012301AA8021D4
:103F70002868FEF72BF89DF804003EBD580000208D
:103F80001CB50446FFF7E2FF09A100F07E000968B6
:103F9000204301918DF805004FF47A700090054898
:103FA000022301AA80210068FEF738F91CBD000039
:103FB000E60000005800002070B5114C05464FF097
:103FC000FF31606A00F0D6FC002818D12846FCF7C3
:103FD000C3FA0C4A002180B2131D06E016683606AB
:103FE000FCD56E5C1E60491C89B28142F6D3106814
:103FF0004006FCD5606ABDE8704000F031BD70BD80
:1040000000000020004400408AB0234CA07A00F059
:1040100029FC4FF0FF363146206B00F04FFD0028A1
:10402000F9D13146606B00F049FD0028F3D13146EB
:10403000A06B00F043FD0028EDD100F04BFC0546DD
:10404000024616A11B48FCF737F91A48FFF7B4FFE0
:10405000207806ABA278617883E807001648D0E99B
:104060000612CDE90412D0E90412CDE90212D0E91A
:104070000210CDE900100F4A10491E3A02F13C002F
:10408000FCF71AF90B481E30FFF796FF608A2844A8
:1040900000F002FCBFE70000000000204025642083
:1040A0005461736B20342069732072756E6E696E73
:1040B000670A00000601002070020020CC7A000888
:1040C0001B4C607A00F0CEFBE079E1780144A06AF5
:1040D00000F0F4FC0028F7D1207A21790144E06A4D
:1040E00000F0ECFC0028EFD100F0F4FB054602469E
:1040F00010A11648FCF7E0F81448FFF75DFF002117
:10410000012000F025FA11481E3800F099FA00212C
:10411000022000F01DFA0648403000F091FAA06B32
:1041200000F05EFD208A284400F0B6FBCCE70000DA
:1041300000000020402564205461736B2033206907
:10414000732072756E6E696E670A000006010020AA
:1041500010B5502080F31188BFF34F8FBFF36F8FDE
:1041600002F0DAFA18B104494FF0805008600020DC
:1041700080F3118810BD000004ED00E030B58FB071
:1041800028216846FCF754FA14210AA8FCF750FAD3
:1041900001210804CDE900100024029402250491B5
:1041A000CDE907504FF4E01009906846FEF780FC17
:1041B00008B172B6FEE70F20CDE90A054FF4806022
:1041C000CDE90C404FF4A0600E9002210AA8FEF742
:1041D00073FB002801D072B6FEE70FB030BD704708
:1041E0000148FEF766BE000090020020F0B50268AC
:1041F000164B174C174D4FF08047984205D0B842E8
:1042000003D0A04201D0A84203D122F070064A6830
:104210003243984205D0B84203D0A04201D0A84210
:1042200003D122F44074CA6822434C6922F0800210
:10423000224302608A68C2620A688262984201D19F
:104240000969016301214161F0BD0000002C0140BA
:10425000000400400008004010B501F01F030121D8
:10426000046A99408C430462016A9A4011430162D6
:1042700010BD10B5406A0021C185C184FEF760FF02
:1042800010BD01680C3151E8002F22F4907241E812
:104290000023002BF5D10168143151E8002F22F0E2
:1042A000010241E80023002BF5D1016B012909D15E
:1042B00001680C3151E8002F22F0100241E8002380
:1042C000002BF5D1202180F84210002101637047B6
:1042D00008B590F84210222901D0022008BD82685A
:1042E0004FF480539A4201D1016921B1816A9A4207
:1042F0001BD04AB10AE00268816A5268C2F3080220
:104300000A80816A891C08E0026972B102685268F9
:1043100002F07F020A70816A491C8162C18D491EC8
:104320000904090CC18503D01BE002685268F1E75B
:104330000168CA6822F02002CA600168CA6822F4D3
:104340008072CA6001684A6922F001024A61202134
:1043500080F8421000214163026B012A03D0FFF76D
:10436000A7F8002008BD016301680C3151E8002F57
:1043700022F0100241E80023002BF5D101680A6801
:10438000D20602D50A6849680091818DFEF7D7FEF2
:10439000E7E7000070B5044600680169E26821F4AF
:1043A0004051114301612169A068084361690843D4
:1043B0002168CA6841F20C639A430243CA602068CC
:1043C0004169A26921F44071114341611E4920688D
:1043D000884202D1FEF736FB01E0FEF723FB00EB3B
:1043E000C00101EB0012606864218000B2FBF0F3B1
:1043F000B3FBF1F36FF018067343B2FBF0F5B2FBB9
:10440000F0F605EB8305322303EB0515B5FBF1F55B
:10441000B6FBF1F605F0F00505EB0615B2FBF0F67C
:10442000B2FBF0F0B0FBF1F06FF01802504306EB76
:10443000800003EB0010B0FBF1F0216800F00F00EA
:104440002844886070BD0000003801408162828588
:10445000C28500214164222180F84210016921B106
:104460000168CA6842F48072CA6001684A6942F011
:1044700001024A610068C16841F02001C16000206A
:10448000704700000148FEF75DBE000024020020D6
:10449000FEE7FDF7AABA490050EAC12018BF042080
:1044A0004A0D18BF40F0010040F2FF72B2EB515FBD
:1044B00008BF40F00200012808BF05207047090727
:1044C000090E002804DB00F1E02080F8001470479A
:1044D00000F00F0000F1E02080F8141D7047303824
:1044E0000A2801D2012070470020704730B595B0EE
:1044F00000240DA1FCF72AF86D4607E045F82400DA
:10450000641CE4B208A10020FCF720F80028F5D1D3
:10451000009800F00BF8002803D002682146684696
:10452000904715B030BD00002000000070B5054672
:10453000064C05E029462068FCF7A2F820B10834B3
:1045400060680028F6D170BD606870BDFC79000815
:10455000012805D04031C8B240F0800000F030B8EA
:104560008031C8B2FAE710B5332000F029F83220C4
:1045700000F026F8322000F075F9282000F020F82D
:10458000322000F06FF9012000F01AF8322000F01C
:1045900069F9062000F014F8322000F063F90C20CD
:1045A00000F00EF8322000F05DF9022000F008F86B
:1045B000322000F057F9BDE810408020AFF30080B2
:1045C0001CB500F0F00141F00C028DF8042041F020
:1045D000080100018DF8051040F00C018DF806105F
:1045E00040F008008DF8070064200090042301AA21
:1045F0004E210248FDF712FE1CBD0000880100207C
:104600001CB500F0F00141F00D028DF8042041F0DE
:10461000090100018DF8051040F00D018DF806101C
:1046200040F009008DF8070064200090042301AADF
:104630004E210248FDF7F2FD1CBD0000880100205C
:1046400010B5044602E0641CFFF7DAFF207800286A
:10465000F9D110BDFEF76EF8FFF790FDFFF7A8FA4D
:104660006F486E49002401604FF4E131C0E9011444
:104670000C21C460C0E904418461C461FEF798FE66
:1046800008B172B6FEE7664866499C380160664923
:10469000C0E901144FF48041C0E9034144618461E1
:1046A000C4610462FDF7CEFB08B172B6FEE7FFF706
:1046B000BBFA5E48FDF797F95D4CA0F57F41FF39E5
:1046C000E0633AD05B48FDF78EF9E0705948801CF2
:1046D000FDF789F920715748001DFDF784F96071D5
:1046E0005448801DFDF77FF9A07152480830FDF74E
:1046F0007AF9E0714F480A30FDF775F920724D489C
:104700000C30FDF770F960724A480E30FDF76BF916
:10471000A07248481030FDF766F9A0814548123074
:10472000FDF761F9E08143481430FDF75CF9208220
:1047300040481630FDF757F9608239480021483863
:10474000FEF7A4FC364804214838FEF79FFC3448A5
:1047500008214838FEF79AFC354901220B313048D0
:10476000FEF798FE02E034A0FFF726FC2C489C38A8
:10477000FFF79BF90128F6D029489C38FFF7D8FBB2
:104780000020FFF7FDFBFFF7EEFE00F0B7F8304822
:1047900000F026F92E4A606210320021012000F05C
:1047A000C7F92B4AA06220320021012000F0C0F995
:1047B000274AE06230320021012000F0B9F9244A92
:1047C000206340320021012000F0B2F9204A6063EA
:1047D00050320021012000F0ABF91D4AA063903A4D
:1047E00000211C4800F034FA194A60616C3A00213B
:1047F000194800F02DFA164AA061483A00211748DE
:1048000000F026FA124AE061243A0021144800F030
:104810001FFA206200F08EF8FEE70000004400401E
:104820002402002000540040A0860100FEFF000882
:104830000000002000FC0008496E6974204D5055AE
:104840002036303530206661696C65640A000000EE
:1048500074790008CD3C0008793D0008C14000088B
:104860000940000810B5EFF3058149B9EFF3108155
:1048700031B908490968022905D1EFF3118111B155
:104880006FF0050403E0002408B101F097F820461A
:1048900010BD0000B800002038B50546EFF30580D4
:1048A00048B9EFF3108030B909480068022805D1F3
:1048B000EFF3118010B16FF0050407E0002401F060
:1048C0001DFF291A0090684601F09EF8204638BD69
:1048D000B8000020EFF3058048B9EFF3108030B93D
:1048E00005480068022804D1EFF3118008B101F0F7
:1048F0000BBF01F003BF0000B8000020EFF30580FC
:1049000058B9EFF3108040B909490868022801D06E
:1049100030B109E0EFF3118030B16FF0050070475E
:1049200001200860002070474FF0FF307047000002
:10493000B800002010B5EFF3058060B9EFF31080E8
:1049400048B90B490868022802D0012806D00BE0BC
:10495000EFF3118040B16FF0050010BD0220086038
:1049600001F022F9002010BD4FF0FF3010BD000013
:10497000B80000202DE9F0410D46014621F001006C
:1049800001F001014FF00004EFF305824AB9EFF3A3
:10499000108232B9114A1268022A05D1EFF311824E
:1049A00012B16FF0050416E048B100296FF001065E
:1049B0006FF00207294608D001F0DAFD07E06FF03A
:1049C000030408E035B1344605E001F015FD012887
:1049D000F8D100E03C462046BDE8F081B800002058
:1049E00070B505464FF00004EFF30580A0BBEFF370
:1049F000108088BB19480068022802D1EFF31180AB
:104A000050BB0DB1686800E00020C10701D001264D
:104A100000E0002600071FD46DB1D5E9021021B1D6
:104A2000502819D31EB1042002E020B114E0012067
:104A300001F0D4F905E00EB1042000E0012001F0FE
:104A4000C2F9040008D00DB1296800E0002100F08F
:104A500053FF0EB144F00104204670BDB8000020A1
:104A600070B5014621F0010001F001014FF0000492
:104A7000EFF305824AB9EFF3108232B90E4A126899
:104A8000022A05D1EFF3118212B16FF0050411E093
:104A900028B16FF0020529B101F0A4FB07E06FF027
:104AA000030407E000231A46194601F03FFA0128E3
:104AB00000D02C46204670BDB8000020F8B50D4649
:104AC0000024211F4E1C00280ED000BFEFF30582EA
:104AD0004AB9EFF3108232B9134A1268022A17D189
:104AE000EFF31182A2B10DB10C461BE000216A4622
:104AF000009101F033FC012813D1009890B10B49CB
:104B00004FF080500860BFF34F8FBFF36F8F09E005
:104B1000294601F071FC012804D015B16FF00104A1
:104B200000E034462046F8BDB800002004ED00E067
:104B3000F8B5144603460E464FF00005EFF3058026
:104B4000E8BBEFF31080D0BB24480068022802D1F4
:104B5000EFF3118098BB93B39E423DD84CB1A0684F
:104B60000028E06803D0502836D3012002E008B1C5
:104B700032E00020012B05D010B31846A26801F0E6
:104B800002F920E040B103200090002211460120EC
:104B9000A36801F054F904E003220021012001F090
:104BA0002AF9050018D086B100231A46194601F0EB
:104BB000BDF9012809D0284600F0B2FE00250BE01F
:104BC000184601F0C3F8050006D00CB1216800E0DA
:104BD0000021284600F090FE2846F8BDB8000020CD
:104BE00038B50024E51E002804D000BFEFF305818E
:104BF00069B902E06FF0030423E0EFF3108131B9EB
:104C000011490968022914D1EFF3118189B10021FA
:104C10000091694601F098FA012811D1009880B1FD
:104C20000A494FF080500860BFF34F8FBFF36F8F7A
:104C300007E000231A46194601F078F9012800D050
:104C40002C46204638BD0000B800002004ED00E0EE
:104C5000F0B585B04FEA01034FF00004EFF3058192
:104C60000394A1BBEFF3108189BB21490968022994
:104C700002D1EFF3118151BB48B3802618218DF882
:104C8000104004AD42B3176807B13D4697691FB1A4
:104C900039467F1E382F02D21779FF0702D0002035
:104CA00005B0F0BD576907B1BE08D2F808C0BCF125
:104CB000000F0DD0D4685C2C18D312693AB137B10B
:104CC0008DE806103246294601F0D9FC03900DE02C
:104CD000D7685FB912694AB903AACDE90012B2B226
:104CE000294601F09FFC012800D003940398D7E7E0
:104CF000B80000202DE9F041134C0F4605466669C7
:104D00002068001D00F0FEFC681C07D137B1216847
:104D1000BDE8F0410D48091D00F044BD2068354450
:104D2000B5424560216805D2A068BDE8F041091D83
:104D300000F020BD6068091D00F01CFD206B85425D
:104D400000D22563BDE8F0816800002050080020F3
:104D50002DE9F041054600F031FD2D4C2069401C45
:104D6000206120682B4F10B1E06930B32BE0256043
:104D70002069012827D1002606EB860007EB80007A
:104D800000F0EAFC761C382EF6D3234800F0E4FC51
:104D90002148143000F0E0FC1F48283000F0DCFC13
:104DA0001D483C3000F0D8FC1B48503000F0D4FCCB
:104DB000194860601430A06005E02068E96AC06AA4
:104DC000884200D82560E06A401CE0626864E86AB6
:104DD000A169884200D9A06100EB800007EB800048
:104DE000291D00F0DFFC00F009FDE06900280CD06F
:104DF0002068E96AC06A884207D208494FF08050AB
:104E00000860BFF34F8FBFF36F8FBDE8F0810000E4
:104E100068000020A00300200008002004ED00E04E
:104E200038B500F0CBFC104CA068C8B90F4800F0B2
:104E300093FC0E48143000F08FFC0C4820601430B6
:104E400060600A4B00202833009003F150021021CB
:104E50000A2000F0F4FFA06010B105A100F04CFDA5
:104E6000BDE8384000F0CABCA4000020640800205F
:104E7000546D72510000000030B4026C0B46002AE1
:104E80000BD0C1681144C1604468A14201D30168DC
:104E9000C16030BC1846FBF77EBB30BC70472DE9C3
:104EA000F041856B174604460026026C82B1C7B1FB
:104EB000E068FBF770FBE168206C091AE16022688A
:104EC000914202D26168081AE060022F16D017E002
:104ED0002068A8B9606801F083FC06460020606085
:104EE0000EE0A068FBF757FB216CA0680844A060A7
:104EF0006168884204D32068A06001E005B16D1E9E
:104F00006D1CA5633046BDE8F08110B5044690F8ED
:104F1000590058B101280CD002280FD0502080F33E
:104F20001188BFF34F8FBFF36F8FFEE7206B00F048
:104F300079FC2046BDE8104000F074BC10BD0000B4
:104F400010484FF44061420706D0C01D0D4920F0C3
:104F50000700411AC1F540610B4A00230144C2E930
:104F600000030839103A21F0070111604B600B6013
:104F70000B1AC0E9001393604FF000405360D060FB
:104F80007047000034100020CC000020144E154C57
:104F9000A6F29C474FF08058DFF84C9012E000BF1B
:104FA00000F00CFCF068C568281D00F0ABFB206920
:104FB000401E2061E068401EE06000F01FFC2846B3
:104FC000FFF7A3FFE0680028EAD138680128F9D983
:104FD000C9F80080BFF34F8FBFF36F8FF2E7000077
:104FE0003C0800206800002004ED00E0002807D005
:104FF0000021416001600B460A46C16000F096BF87
:105000007047000070B51D46049C51B1C4F80020E3
:10501000C4E90F010121204600F044FF84F84C5000
:1050200070BD2460F4E72DE9F0470E46DDE9098400
:105030001746824691009946089DA522206BFBF7F2
:10504000EFFA6FF00301206B01EB8701084420F0B9
:105050000707780707D0502080F31188BFF34F8FE0
:10506000BFF36F8FFEE72218315C82F83410315C99
:1050700011B1401C1028F6D3002684F84360382D67
:1050800000D33725E562C4E91356201D00F06FFBFD
:1050900004F1180000F06BFB2461C5F13800646274
:1050A000A061666584F858604A465146384600F06B
:1050B00047FA2060B8F1000F01D0C8F80040BDE801
:1050C000F087000030B5114900E011460A688242BD
:1050D000FBD34B685C18844203D140681844486095
:1050E000084643681C18944209D1084C103C2468B7
:1050F000A24209D052681A4442600A6812680260EB
:10510000814200D0086030BD0460F9E7CC00002087
:1051100070B5002441600B4D0061914206D8D11A50
:105120008269914206D2011D686807E09A4203D263
:10513000994201D3012403E0011D286800F01AFB05
:10514000204670BDA400002010B5044600F036FBD8
:10515000A06B28B15FF0000400F050FB204610BDAA
:105160000124F9E730B589B0304D55E004980028A6
:1051700006DADDE90601059A9047049800284BDB22
:10518000069C606910B1201D00F0BCFA02A800F076
:10519000B9F8024604980A283ED2DFE800F0050577
:1051A000053D263705053D260598A16903460144BE
:1051B0002046FFF7ADFF00B3616A20468847E069EB
:1051C000012829D1002000900598A16900234218E8
:1051D0001946204601F04AFC78B9502080F3118826
:1051E000BFF34F8FBFF36F8FFEE70598A06128B123
:1051F000811813462046FFF78BFF0DE0502080F307
:105200001188BFF34F8FBFF36F8FFEE794F82C0028
:1052100010B9204600F006FB002204A9A86801F09E
:1052200001F80028A2D109B030BD0000A400002080
:105230002DE9FC410F46054600F0FAFC01A800F0FC
:1052400061F80446019818B101F07EFBBDE8FC81CD
:10525000224EAFB170680068A8B30027291B3A46F8
:10526000B06800F089FB01F06FFB0028EED11C490B
:105270004FF080500860BFF34F8FBFF36F8FE5E7AB
:10528000A542EBD801F060FB30682746C068C468CF
:10529000201D00F037FAE069012810D1A0692B46E3
:1052A00041193A462046FFF733FF40B1002003463C
:1052B000014600902A46204601F0D8FB20B1616AE1
:1052C00020468847C2E707E0502080F31188BFF3EB
:1052D0004F8FBFF36F8FFEE70127BFE7A4000020C9
:1052E00004ED00E006484168096829B14168C968D1
:1052F000C9684968016370474FF0FF31FAE7000061
:105300006800002070B5054601F0F8F9064E044625
:105310003069844203D200F009F8012000E0002047
:1053200028602046346170BDA4000020F8B5194DF6
:105330001FE0C068C4680668201D00F0E3F9616AD8
:1053400020468847E069012813D1A0693044B04263
:1053500006D924616060211D286800F00BFA08E07E
:1053600000200346014600903246204601F07EFBB5
:1053700038B1286801680029DBD16968C5E90010E7
:10538000F8BD502080F31188BFF34F8FBFF36F8FAC
:10539000FEE70000A400002008484068401C4FF0D1
:1053A000500080F3118804D0BFF34F8FBFF36F8F8D
:1053B000FEE7BFF34F8FBFF36F8FFEE7D4000020EF
:1053C000074C2068016841B1C0680021D0F8000096
:1053D000FFF72EFFFFF7C6FEF3E701210020F7E7F6
:1053E000A40000202DE9F041044600F0E7F994F90B
:1053F000455004F1240609E0606A48B1304601F0E6
:105400006BFA08B100F04EFB6D1E6DB2002DF3DC9F
:105410004FF0FF3684F8456000F0F0F900F0CEF967
:1054200094F9445004F1100709E0206948B1384666
:1054300001F052FA08B100F035FB6D1E6DB2002D7F
:10544000F3DC84F84460BDE8F04100F0D7B9000017
:105450002DE9F0410546002700F0EAFB314E3068A7
:1054600008B9FFF76DFDF06805424BD1C5B30835AB
:1054700068070ED005F00700C0F108000544680772
:1054800007D0502080F31188BFF34F8FBFF36F8F89
:10549000FEE72DB37068854234D8224810300146AB
:1054A0000C6801E020460C466168A94202D22168DE
:1054B0000029F7D131688C4224D007682168016047
:1054C00060680837411B10290FD96019420708D0BE
:1054D000502080F31188BFF34F8FBFF36F8FFEE72B
:1054E00010E041606560FFF7EDFD61687068401A8B
:1054F0007060B268904200D2B060F0680143002052
:10550000C4E9000101F020FA780707D0502080F3A9
:105510001188BFF34F8FBFF36F8FFEE73846BDE8AA
:10552000F0810000BC0000200449086818B1086838
:10553000026D521C02650868704700006800002078
:1055400010B5031F4FF080741C601B1F21F0010178
:105550001960191F024B0B60143940380A6010BDE6
:1055600099530008094910B50A78074C531CDBB25F
:105570000A2802D0A0540B7010BD0020A0540B705C
:105580000120487010BD0000D80200205400002007
:1055900070B50446042918D16068FAF7C9FF0B4EAC
:1055A0003070A068FAF7C4FF094D2870E068FAF778
:1055B000BFFFC1B2074801700748327803685A63D9
:1055C00003682A789A630068C16370BD00000020F8
:1055D0000100002002000020DC01002070B504461C
:1055E0000E2974D13A4D2846FCF7EAF9606BFAF7B8
:1055F0009FFF01463748FEF74CFF6068FAF798FFB7
:1056000001462846FEF745FFA068FAF791FF0146DC
:10561000A81CFEF73EFFE068FAF78AFF0146281D46
:10562000FEF737FF2069FAF783FF0146A81DFEF752
:1056300030FF6069FAF77CFF014625480830FEF725
:1056400028FFA069FAF774FF014621480A30FEF7E7
:1056500020FFE069FAF76CFF01461D480C30FEF7A9
:1056600018FF206AFAF764FF014619480E30FEF76A
:1056700010FF606AFAF75CFF014615481030FEF72C
:1056800008FFA06AFAF754FF014611481230FEF7EE
:1056900000FFE06AFAF74CFF01460D481430FEF7B0
:1056A000F8FE206BFAF744FF014609481630FEF772
:1056B000F0FEBFF34F8F08480168084A01F4E0612B
:1056C00011430160BFF34F8F00BFFDE7FFE770BDDF
:1056D00000FC0008FEFF00080CED00E00400FA05E5
:1056E00010B5064C6078002806D021780448FEF7F3
:1056F000FDFE00206070207010BD000054000020EE
:10570000D8020020D0E9013201699A60D0E9012372
:105710005A604A68824201D182684A60002202616E
:105720000868401E0860086870470000034B03606B
:1057300003F15C0008608020106070477C09002045
:10574000044B036003F15C0008604FF4807010604C
:1057500070470000D80B002000F108014FF0FF3225
:10576000C0E90112C16001610021016070470021A0
:105770000161704730B50B685A1C02D000F1080275
:1057800002E0026904E02246546825689D42FAD985
:1057900053684B6099608A60516008610168491CD8
:1057A000016030BD42684A6093688B6093685960BD
:1057B000916008610168491C01607047502080F3C6
:1057C0001188BFF34F8FBFF36F8F0A494868401CA1
:1057D000486001280CD10848006810F0FF0F07D07E
:1057E000502080F31188BFF34F8FBFF36F8FFEE718
:1057F00070470000D400002004ED00E0084948682C
:1058000028B1401E486001D180F3118870475020B4
:1058100080F31188BFF34F8FBFF36F8FFEE7000057
:10582000D400002070B5002827D0144DA0F1080442
:105830006168E868014207D1502080F31188BFF306
:105840004F8FBFF36F8FFEE722683AB1502080F38D
:105850001188BFF34F8FBFF36F8FFEE78143616005
:1058600000F0E6F960686968084468602046FFF760
:1058700029FCBDE8704001F067B870BDBC00002095
:105880004FF0E02000210161816105494FF47A72F7
:105890000968B1FBF2F1491E4161072101617047BE
:1058A0005000002010B5FAF7CFFC114910280ED394
:1058B00000F1E02090F8F0030A78904207D25020DF
:1058C00080F31188BFF34F8FBFF36F8FFEE7094856
:1058D0000068896800F4E060884207D9502080F3AE
:1058E0001188BFF34F8FBFF36F8FFEE710BD00002D
:1058F000D40000200CED00E010B5084B002200BFE2
:1059000053F832401CB1521C082AF9D310BD43F899
:10591000321003EBC201486010BD0000600300209C
:1059200010B504000AD000F013F894F846000028DF
:105930000CD12046BDE81040FFF774BF502080F323
:105940001188BFF34F8FBFF36F8FFEE710BD0000CC
:10595000084A002102EBC1035B68834206D10020A4
:1059600042F8310002EBC10148607047491C082928
:10597000F0D370476003002070B515460E4604460C
:10598000FFF71CFF94F944100020491C01D184F852
:10599000440094F94510491C01D184F84500FFF7F3
:1059A0002DFFA06B28B92A46314604F1240000F0EF
:1059B00097F82046BDE87040FFF714BD10B502000F
:1059C00014D00F48806B38B1502080F31188BFF39A
:1059D0004F8FBFF36F8FFEE700F02AF900211046CA
:1059E000FFF788F900F0B0FF002807D105494FF014
:1059F00080500860BFF34F8FBFF36F8F10BD000062
:105A00006800002004ED00E070B50D4604000BD0E6
:105A100095B11E4A906BB8B1502080F31188BFF346
:105A20004F8FBFF36F8FFEE7502080F31188BFF3D5
:105A30004F8FBFF36F8FFEE7502080F31188BFF3C5
:105A40004F8FBFF36F8FFEE700F0F2F852692368C3
:105A50005919934204D98B420AD9914202D807E0DE
:105A60008B42FAD9881A21600021FFF743F900E040
:105A7000216000F069FF002807D105494FF08050F0
:105A80000860BFF34F8FBFF36F8F70BD68000020B9
:105A900004ED00E002498A6A02604969416070478A
:105AA000680000200149012048627047680000201A
:105AB00010B50C4650B1094909681831FFF75AFE74
:105AC0002046BDE810400121FFF714B9502080F3B3
:105AD0001188BFF34F8FBFF36F8FFEE76800002080
