:020000040800F2
:10000000B80B002061020008F14C0008593F0008BD
:10001000ED4C0008411600084553000800000000A0
:10002000000000000000000000000000014F000878
:100030004516000800000000F54C0008054F0008B8
:100040007B0200087B0200087B0200087B0200089C
:100050007B0200087B0200087B0200087B0200088C
:100060007B0200087B0200087B0200087B0200087C
:100070007B0200087B0200087B0200087B0200086C
:100080007B0200087B0200087B0200087B0200085C
:100090007B0200087B0200087B0200087B0200084C
:1000A0007B0200087B0200087B0200087B0200083C
:1000B0007B0200087B0200087B0200087B0200082C
:1000C0007B0200087B0200087B0200087B0200081C
:1000D0007B020008395300087B0200087B020008FD
:1000E0007B0200087B0200087B02000800F002F897
:1000F00000F0A6F814A696E8000CB244B344DA4522
:1001000001D100F09DF8BAE80F000FA696E8300084
:10011000A5EB040504EB0607AAEB0704A7F101070A
:100120004FEA15154FEA3414A4F10104AC4201D38F
:1001300000F086F813F0010F18BFFB1A43F001031B
:1001400000F001F8DBE71847107F0000307F000067
:10015000103A24BF78C878C1FAD8520724BF30C8F3
:1001600030C144BF04680C60704700007047000055
:100170000023002400250026103A28BF78C1FBD8B0
:10018000520728BF30C148BF0B6070476E2900F08E
:100190001783702900F06786662907F0CE856529E8
:1001A00007F0CB85672907F0C885612907F0C78567
:1001B00003681B0A28BF41F08001692900F098807C
:1001C000642900F09580752900F092806F2900F075
:1001D000F585782900F03386E92900F08F85E42938
:1001E00000F08C85F52900F08985EF2900F0F28573
:1001F000F82900F032860368DB0928BF41F080014E
:10020000632901F0B380732901F0B880E32901F07C
:10021000C380F32901F0C880002070471FB500F0AB
:1002200093FE04000020002106F04AFC401C6060A0
:100230000020002106F02EFCE0601FBD10B510BDAF
:1002400001F0BAF91146FFF7E9FF05F0C7F901F02F
:10025000E6F903B4FFF7F2FF03BC01F0E9F900008F
:100260000948804709480047FEE7FEE7FEE7FEE74A
:10027000FEE7FEE7FEE7FEE7FEE7FEE70448054986
:10028000054A064B70470000094F0008ED000008C2
:10029000B8050020B80B0020B8070020B8070020E0
:1002A0001CB50C46064B7B4469460090204600F086
:1002B000AEFC04460020694600F0BCFC20461CBD94
:1002C0008B0900000FB41CB5084B06AA7B44694695
:1002D0000090059800F09BFC04460020694600F061
:1002E000A9FC20461CBC5DF814FB00006509000059
:1002F0002DE9F0410646002410687529314616A5FF
:1003000010D000F0C9F9002802DA404213A507E036
:1003100031688A0701D512A502E0490704D511A565
:10032000012401E000F0C1F900210A2206F12407AE
:1003300009E0B0FBF2FCB0FBF2F302FB1C00303032
:1003400078541846491C0028F3D123462A463046E3
:10035000BDE8F04100F0DBB9000000002D00000016
:100360002B000000200000002DE9F05F89460446C4
:100370004FF0000ADFF874B1FB44C0F820A020461B
:10038000E1688847002874D0252806D0D4E90121E7
:100390009047206A401C2062F1E700265F46204615
:1003A000E16888472028054607DB312D05D27819FA
:1003B00010F8200C08B10643F1E7B00701D526F08C
:1003C0000406C4F81CA00027C4F818A02A2D09D0E0
:1003D000284606F053F938B304EB8708303DC8F8D7
:1003E000185019E059F8041B204604EB870291616C
:1003F000E1688847012F054618D1E069002820DA16
:1004000026F020061DE0D8F8180000EB800005EB70
:1004100040003038C8F818002046E1688847054693
:1004200006F02CF90028EED1012F0AD02E2D08D18C
:100430002046E16888477F1C0546022F46F02006CB
:10044000C4DBA069002803DA404246F00106A0613F
:10045000F00701D026F010066C2D0BD0682D09D0C6
:100460004C2D39D06A2D35D0742D35D07A2D33D01E
:1004700016E038E0E1682F4620468847B842054636
:1004800009D16C2F26D04FF48060E16806432046E6
:100490008847054604E06C2F1AD04FF4807006435D
:1004A0000DB3A5F14100192802D8203546F40066A5
:1004B0004A462946204626604E46FFF767FE80B131
:1004C00001280BD0F61D26F0070000F1080956E7B9
:1004D0004020E4E78020D8E70020D6E706F10409B1
:1004E0004DE7284652E7206ABDE8F09FB67A000043
:1004F00070B5064600F09AF80468054630460A22B0
:10050000002100F0BBFC2C6070BD0000014A00F02F
:10051000EDBC00000000002010B5431C02E010F804
:10052000011B71B18107FAD14FF0013202C88C1A58
:100530008C4314EAC211F9D0C01A0A0603D0C01EB7
:1005400010BDC01A10BD0A0401D0801E10BD0902E2
:10055000FCD0401E10BD4FF0000200B5134694467B
:100560009646203922BFA0E80C50A0E80C50B1F10B
:100570002001BFF4F7AF090728BFA0E80C5048BF1F
:100580000CC05DF804EB890028BF40F8042B08BFBD
:10059000704748BF20F8022B11F0804F18BF00F8B9
:1005A000012B70474FF0013C50F8042B51F8043BED
:1005B0009A4221D1A2EB0C03934313EACC1317D137
:1005C00050F8042B51F8043B9A4215D1A2EB0C03CE
:1005D000934313EACC130BD150F8042B51F8043B8E
:1005E0009A4209D1A2EB0C03934313EACC13DBD05C
:1005F0004FF00000704700BFD01A01BAB1FA81F184
:1006000001F0180122FA01F0CB40DBB2C0B2C01AEF
:10061000C1F120012CFA01F3D11A914311EAC3115F
:10062000E6D1704770477047704700000048704738
:10063000F000002010B5FFF7F9FF006810BD10B5FD
:100640000446FFF7F3FF046010BD70B504468569EA
:100650000068C10601D5302600E02026C00707D07B
:1006600070BDD4E9012130469047206A401C2062C9
:100670006D1EF6D570BD70B5044685690078C0075B
:1006800007D170BDD4E9012120209047206A401C89
:1006900020626D1EF6D570BD09684A0501D540B2CD
:1006A0007047C905FCD500B2704709684A0501D5F5
:1006B000C0B27047C905FCD580B2704770B50C4612
:1006C0000546012A05D02878800600D5EA6900236E
:1006D00002E0012305E05B1C934202D2E05C0028AB
:1006E000F9D1A869E618C01AA861286A18442862D6
:1006F0002846FFF7AAFF04E0D5E9012114F8010B11
:100700009047B442F8D32846FFF7B5FF70BD2DE9F6
:10071000F0470D4699469246044600F124080168C8
:10072000880604D5E06921F01001216000E0012075
:10073000A84201DD471B00E00027A1697A1902EBFE
:100740000900081AA0612078C00602D42046FFF7ED
:100750007CFF002608E0D4E901211AF80600904742
:10076000206A401C761C20624E45F4DB2078C006CF
:100770000AD52046FFF769FF06E0D4E901213020C1
:100780009047206A401C2062381EA7F10107F4DC64
:1007900007E0D4E9012118F805009047206A401CC1
:1007A0002062281EA5F10105F3DC2046FFF763FF58
:1007B0002078000602D50220BDE8F0870120FBE783
:1007C00011680268006A530501D508700AE0D30574
:1007D00001D5088006E0130603D5C217C1E900025F
:1007E00000E00860012070472DE9FF4F0C461E46CF
:1007F0004FF0FF378BB0D2E90001DDF860800A903E
:100800008A46C1F30A5505B93D46002108464FF016
:100810000000BAF1000F00F4400005DA00EB8000A0
:100820004FF4400101EA50004FEA9059B9F1010F2D
:1008300000DDB9460A9850EA4A000ED044F610503E
:10084000A5F2FF3545432F14B8F1000F1ED07542B5
:10085000291E1EDDC9F100021CE0B8F1010F4FF0A6
:10086000000001D0302103E0F24305E02154401C98
:10087000B042FBDB30460022002121540B99C1F825
:100880000880C1E900200FB0BDE8F08FBD1B6D1CD2
:10089000DEE74A4600DA694206A800F0D9FD06AB59
:1008A00093E8070003AB83E8070050460A9905F078
:1008B000A7FA8DE80700A0F500501F3800900398B4
:1008C000002D0ADD42F21F014A460844002303A915
:1008D0000390684605F010FD09E0A0F500504A4677
:1008E0001F38002303A90390684605F01AFD8DE820
:1008F00007000004000C03D04FF0FF30410800E077
:100900001046B8F1000F03D00022009215461EE0F9
:10091000751E05D400F01CFB303262556D1EF9D5F2
:10092000B3460122084302D000227F1C04E0207855
:10093000302801D100227F1E002A099784D01DE0B3
:10094000112D07DA00F004FB303262556D1C50EABD
:100950000102F5D1084302D00098C8B10EE0002191
:10096000681E05E0235C625C63542254401E491CEF
:100970008142F7DBAB46A81B401E0990002004F81B
:100980000B000B98099AC0F80880C0E9002B7AE7A1
:1009900011264FF0000857E72DE9F04F884604462E
:1009A000D21D22F0070191B0D1E90001CDE90A0181
:1009B00005F0EEFD02460B98C00F01D02D2007E098
:1009C0002068810701D52B2002E0202101EAC00028
:1009D000032A099001D0072A05DB03464146204639
:1009E00000F07AFC0BE12078800601D5E06900E098
:1009F0000620B8F1650F814606D0B8F1660F18D011
:100A0000B8F1670F70D131E00020B9F1110F0090FB
:100A100001DB112301E009F101030AAA01A90CA8D5
:100A2000FFF7E2FEDDE90C70002609F101058346BF
:100A300047E001204B4600904FF000470AAA01A969
:100A40000CA8FFF7D1FEDDE90DB00C995D4600263C
:100A500010B909F101000D18B9EB050003D4C0F17C
:100A6000FF3609F10105A5EB09002BE0B9F1010FF3
:100A700001DA4FF001090020B9F1110F009048464A
:100A800001DD112300E003460AAA01A90CA8FFF723
:100A9000ABFEDDE90C704D4600268346207800074A
:100AA0000AD4AB4500DA5D4601A8012D04DD4119E9
:100AB00011F8011C302907D04F4502DA17F1040F55
:100AC00004DA012082460FE06D1EEEE7002F02DC03
:100AD000ED1B3E4403E0781CA84200DD7D1CB81BE2
:100AE00000F1010A4FF000472078000703D4AA451F
:100AF00001DB4FF0FF3A0021B7F1004F0DF1430841
:100B00008DF8431024D002202B23002F01DA7F42DE
:100B10002D230A21021EA0F1010000DC5FB197FB2A
:100B2000F1FC97FBF1F201FB1C7C17460CF1300C39
:100B300008F801CDEEE7A8F101000370218809054E
:100B400001D5452100E06521A0F1010800F8011C54
:100B500009980FA9A1EB0807FF1D00B10120411959
:100B600001EBEA70A1693844081A401EA0612078A0
:100B7000C00602D42046FFF768FD099828B1D4E9E1
:100B800001219047206A401C20622078C00622D5AF
:100B90002046FFF75AFD1EE0002E04DBB34502DDC0
:100BA00001A8805D00E03020D4E901219047206A4F
:100BB000401C2062761CAAF101005FEA000A0AD1FB
:100BC00000F0C2F9C0680168405CD4E90121904797
:100BD000206A401C2062281EA5F10105DCDC07E02C
:100BE000D4E9012118F8010B9047206A401C2062CB
:100BF000381EA7F10107F3DC2046FFF73CFD032078
:100C000011B041E601694A1C02610878704700B5DD
:100C10008FB0CDE901310021059105497944CDE935
:100C2000031011466846FFF79FFB0FB000BD0000A0
:100C3000E5FFFFFF0A6802F8010B0A607047000039
:100C40002DE9FF5F15468A460446DFF8AC80F8447C
:100C50000027D8E900103E46CDE9001010E03AF830
:100C600016106A4602A800F065FC411C07D02178E6
:100C7000890603D5E269391891420DD80744761CDC
:100C80002078800602D5E069B84205DDAE42E6DB99
:100C90003AF816000028E2D1A069C01BA0612046E6
:100CA000FFF7D3FCD8E90010CDE90010002017E0D1
:100CB0003AF818106A4602A800F03CFCB0F1FF3F79
:100CC00081460BD000250DF1080B05E0D4E9012188
:100CD0001BF8050090476D1C4D45F7D308F1010046
:100CE000B0428046E4DB206A384420622046FFF7A9
:100CF000C2FCBDE8FF9F00008E7200002DE9F041AC
:100D00008046D21D22F007020025D2E90002F52913
:100D100015A614D0011E72F1000106DA0023D0EBF3
:100D2000030063EB020211A608E0D8F800108B075D
:100D300001D50FA602E0490701D50EA601251146EF
:100D4000002408F1240704E000F002F930323A559B
:100D5000641C50EA0102F7D12B4632462146404638
:100D6000BDE8F041FFF7D3BC000000002D000000FB
:100D70002B0000002000000030B4002100F124040A
:100D800008E002F00705D208303542EA4372DB087A
:100D90006554491C52EA0305F3D10468002310A2EC
:100DA000250708D504F020040C4304D0C4690123AE
:100DB0000CA2641EC46130BCFFF7A9BC10B5044688
:100DC00021461068FFF771FC02462046BDE810403E
:100DD0000023D1E7D21D22F00701D1E90023CBE7A0
:100DE0000000000030000000F0B40D460188090545
:100DF00002D5214C7C4402E01F4C7C440E3400217F
:100E000000F1240608E002F00F071209E75D42EA4C
:100E100003721B097754491C52EA0307F3D1027885
:100E20000023120704D5702D06D009B10223113416
:100E30002246F0BCFFF76BBC01231034F8E770B515
:100E400004460D4621461068FFF72FFC024629464E
:100E50002046BDE870400023C6E7D21D22F00703FC
:100E6000D3E90023C0E70368126843F0200303605E
:100E70000823C3610023B7E7F07000002DE9F047B5
:100E800091460F4680460446002614F8015B2DB1BA
:100E900000F052F80068405DC007F6D12B2D02D05B
:100EA0002D2D18D0641E4A463946204600F080FA9F
:100EB00027B13968A14201D1C7F800804FF0020480
:100EC00071050BD54042002803DDFFF7AFFB04603E
:100ED000A007BDE8F08746F48066E4E70028F8DA6A
:100EE000FFF7A4FB04606FF00040F2E72DE9F0414A
:100EF00015460E46040002D12C6804B90BA4204606
:100F000000F04CFB0444207870B127463146384647
:100F100000F034FB0444207810B1002004F8010BE9
:100F200038462C60BDE8F0810027F9E7000000009A
:100F300000487047F000002010B500F005F8001DD3
:100F400010BD00BF7D5B000000487047100100200D
:100F500030B5B0F10A0271F100034FEA900E4EEA8B
:100F6000817EB0EB0E0061EB91014FEA101E4EEA5C
:100F7000017E10EB0E0041EB11114FEA102E4EEAEC
:100F8000016E10EB0E0041EB11214FEA104E4EEABC
:100F9000014E10EB0E0041EB1141401841F10001F0
:100FA0004FEAD00040EA41704FEAD1014FEA810494
:100FB00044EA907410EB800544EB01046D1944EB96
:100FC0000404521BA3414FF0000348BF0A3200D56E
:100FD00030BD401C41F1000130BD00002DE9F04F53
:100FE00004460D46D21D22F0070089B0D0E90097D3
:100FF0004846394605F0CCFA0246F80F01D02D23B9
:1010000007E02068810701D52B2302E0202101EAB7
:10101000C0038DF820300BB1012000E00020032A2E
:10102000824601D0072A04DB2946204600F054F905
:101030003FE12078800601D40D2500E0E569C7F383
:101040000A560D2D49DA00214FEA175B08464FF08A
:101050000000002F00F4400007DA00EB80004FF49E
:10106000400100EBD07001EA60008115012901DD2B
:101070004FF0FF3100224FEA850CBCF1180F06D368
:101080001346ACF118004FF08052C24003E04FF419
:10109000801323FA0CF30CF10C0CBCF1200F04D3D9
:1010A000ACF1200C09FA0CF001E007FA0CF0002971
:1010B0004FF0004801DD18B90FE00ED140450CD3C8
:1010C00019EB02095F4121B9404502D19F4329EA4A
:1010D0000209BBEB175F00D0761C2088000502D503
:1010E0007B48784402E07A487844193808AA3023CB
:1010F00002F80A30037C0AF10101002E0AF1020A0B
:1011000053546A4602DC4FF0300101E04FF03101E8
:101110004FF001088DF8001002D0A6F2FF3603E070
:1011200059EA470100D06B4E002D02DC21780907F7
:1011300004D54FF002082E218DF80110C44600217D
:101140000BE0C7F303433F01C35C491C6D1E02F86B
:101150000830052908F1010801DA002DF1DC002131
:101160000CE000EB1973491C1B786D1E082902F86E
:1011700008304FEA091908F1010801DA002DF0DC06
:1011800021688B0602D516E0A8F10108E04505DDCF
:1011900002EB080313F8013C302BF5D0B8F1000F37
:1011A00009DD02EB080313F8013C2E2B03D10907DC
:1011B00001D4A8F10108002D05DD3E2102F8081038
:1011C0006D1E08F10108407C002E02F8080008F1AD
:1011D000010804DA2D20764202F8080002E02B20F4
:1011E00002F808000A214FF47A70864208F10108DB
:1011F0000BDB96FBF0F3303302F8083096FBF0F38C
:1012000008F1010800FB136601E0642E0CDB64208A
:1012100096FBF0F3303302F8083096FBF0F308F158
:10122000010800FB136601E00A2E06DB96FBF1F0D5
:10123000303002F8080008F1010896FBF1F001FBDC
:101240001060303002F80800A16908F1010808EBCD
:10125000050202EB0A00081AA0612078C00602D439
:101260002046FFF7F2F9216A08AE01EB0A0020627E
:1012700004E0D4E9012116F8010B9047BAF1010A04
:10128000F7D22078C00602D52046FFF7DEF96E4679
:1012900009E016F8010B3E280FD0D4E90121904750
:1012A000206A401C2062B8F10108F2D22046FFF704
:1012B000E2F909B00320BDE8F08F206A28442062DB
:1012C00003E0D4E90121302090476D1EEBD3F8E70D
:1012D000456E000002FCFFFF2DE9F0411F46044669
:1012E00003260168072A01F4006004DB08B116A593
:1012F00005E016A503E008B115A500E015A521F04D
:1013000010002060A069C01EA0610FB1401EA06146
:101310002046FFF79AF94FB1D4E9012138469047AA
:10132000206A401C2062C01C206206E0206AFAE7A6
:10133000D4E9012115F8010B9047761EF8D220461A
:10134000FFF799F9BDE8F0814E414E006E616E00E5
:10135000494E4600696E660010B5436913B1AFF39C
:10136000008001E0FFF7AAF9012010BD127800F11A
:1013700024010A7000224A700122EDE711684FF043
:10138000FF32E9E710B5436913B1AFF3008001E024
:10139000FFF756FC012010BD128800F12401828461
:1013A0000022C2840122EDE711684FF0FF32E9E725
:1013B0002DE9F05F824615468B4600270AF10104AD
:1013C000B9460078302801D09DB113E014F8010B24
:1013D0000127782803D0582801D045B10AE00DB183
:1013E000102D07D1002714F8010B102502E0082565
:1013F00000E00A250026B0460EE005FB080005FBCC
:1014000006F101271FFA80F801EB1046B6F5803F80
:1014100000D3B94614F8010B294600F0F2F8002871
:10142000EBDABBF1000F05D00FB1641E00E05446AB
:10143000CBF80040B9F1000F06D0FFF7F7F8022112
:101440000160C81EBDE8F09F48EA0640FAE70000C8
:101450002DE9F047814616468AB0354878440DC8D4
:101460008DE80D0032487844801C03AC0DC884E838
:101470000D0041F69B300844372190FBF1F290FBC0
:10148000F1F5A5F1800501FB12041B3C02D5644275
:10149000012000E00020DFF898A080460027FA44F1
:1014A000AAF1BE0A0EE0E0070AD03246684607EB12
:1014B000470101230AEB810104F033FF8DE80700A7
:1014C00064107F1C002CEED1194F7F44AE3F19E011
:1014D000E80715D007EB04100DF1180A90E80E008C
:1014E0008AE80E00C068F04201D19819089032468F
:1014F000012306A903A804F014FF03AB83E8070047
:101500006D10641C002DE3D14FF001033246694693
:10151000B8F1000F03A802D004F0EEFE01E004F0E1
:1015200000FFC9E90001C9F808200AB0BDE8F0874A
:101530005C6B00002DE9F04116460C460546FFF7AE
:10154000FBFC036893F80101012807D0FF2C12D897
:10155000185D80B101202C70BDE8F081D3F807013F
:101560003246214603F20713C7182846BC46BDE899
:10157000F041002360474FF0FF30EDE730B5034600
:101580001D781DB10A4603E0AC4201D1181A30BDE6
:1015900012F8014B002CF7D15B1CF1E730B5034684
:1015A0001D783DB10A4612F8014B1CB1AC42FAD18C
:1015B0005B1CF5E7181A30BD7546FFF7B9FCAE465F
:1015C00005006946534620F00700854618B020B54F
:1015D000FEF754FEBDE820404FF000064FF0000734
:1015E0004FF000084FF0000BAC46ACE8C009ACE887
:1015F000C009ACE8C009ACE8C00921F007018D467C
:1016000070473A2800D2303820F02002412A01D316
:10161000A2F13700884201D34FF0FF30704710B578
:101620000446AFF300802046BDE81040FEF711BE2F
:1016300001491820ABBEFEE72600020070470000FB
:10164000FEE700007047000070B542F20C06044649
:10165000C4F2020600F01EFB3168C90718D13068D9
:10166000800644BF202030603068C00607D430694F
:10167000C00704D1306840075CBF002070BD3068EF
:10168000C00623D40020316849072BD434E000BFC2
:10169000002C47D00546601C0ED13068C007DED054
:1016A0003068C0071CBF30685FEAC070D7D03068B0
:1016B000C007F2D1D3E700BF00F0ECFA401BA04214
:1016C00030D83068C007F7D1C9E700BF40F290506A
:1016D000C2F20000C16941F00201C161102031680D
:1016E000490709D540F29051C2F20001CA6940F0A1
:1016F000040042F00102CA613169C90702D13060B9
:10170000012070BD40F29051C2F20001CA6942F05E
:101710000402CA61316921F00101316130600120A8
:1017200070BD00BF032070BD10B586B0044600F048
:101730008BF901200021CDE903040291059002A854
:1017400001A900F0A9F800F01FF906B010BD0000D3
:1017500000887047B0B50C46054600F075F9E317F0
:1017600001202946224600F019F9BDE8B04000F0FA
:101770000BB90000014690F82100022816D1086834
:10178000D1E90FC3026822F00E020260026822F063
:1017900001020260012000FA03F2CCF8042081F873
:1017A00021000020002281F8202070470420886357
:1017B0000120002281F820207047000090F82110BD
:1017C000022923D10268116821F00E0111602F2136
:1017D0001368C4F202018A4240F20401C4F2020119
:1017E00023F00103136015DD3023C4F202039A4293
:1017F0001CD04423C4F202039A421BD05823C4F2E3
:1018000002039A421CD14FF4803321E0042181630A
:10181000012070470823C4F202039A420ED01C2311
:10182000C4F202039A420BD1102311E04FF48073EB
:101830000EE000BF4FF480530AE000BF012307E031
:1018400001F1680C4FF08073624508BF4FF48013BC
:101850000B60012180F82110426B002180F82010DC
:1018600022B180B590470021BDE88040084670470E
:10187000B0B5044600F00EFA054640F24C00C2F244
:1018800000000078611C18BF044400BF00F002FA99
:10189000401BA042FAD3B0BD2DE9F04381B040F225
:1018A0009056C2F20006327E012A03D1022001B016
:1018B000BDE8F083054601202C6830764CF25030AC
:1018C0008846FFF7C1FE022C1CD100284ED1002013
:1018D00042F21004F061C4F20204206840F00400F7
:1018E0002060206840F0400020604CF25030FFF74C
:1018F000ABFE216821F0040121600021317601B0A6
:10190000BDE8F08390BB4FF0FF30C8F80000D5E988
:10191000027007EB8020874228D242F21004C4F202
:1019200002044FF0000900BFC6F81C90206840F088
:10193000020020606760206840F0400020604CF2A8
:101940005030FFF781FE216821F00201216098B933
:10195000D5E9020107F5806700EB81208742E3D3D8
:1019600000200021317601B0BDE8F0830120002184
:10197000317601B0BDE8F083C8F8007000213176FF
:1019800001B0BDE8F083000042F21001C4F2020190
:10199000086840F0800200200A6070472DE9F04F8F
:1019A00081B040F29059C2F20009924699F818208D
:1019B000012A03D1022001B0BDE8F08F804601204A
:1019C00089F818004CF250309B460E46FFF73CFE5B
:1019D000A0BB404642F21007B8F1020F18BF042026
:1019E000C4F20207B8F1010F08BF404645424FF06C
:1019F00000080024C4F12001C9F81C802AFA04F070
:101A00000BFA01F13A680843B4F1200158BF2BFAF0
:101A100001F042F00101396026F8020B4CF250301F
:101A2000FFF712FE3968013521F0010248F100018B
:101A30003A6018B9002904F11004DBD0002189F8BC
:101A4000181001B0BDE8F08F42F20400C4F20200A9
:101A5000C16809065CBF0020704740F22311C4F240
:101A60006751016048F6AB11CCF6EF510160C068D8
:101A7000C0B2C009704700002DE9F04F82B00E6877
:101A8000002E00F0FD8041F20042C4F20102042366
:101A900040F2004E904208BF03234FF6FF7CC4F291
:101AA000010E009300240123C1F2100C4FF0000A34
:101AB0004FF0000944E000BF012704F00C030F229F
:101AC0009A402BEA020207FA03F34FEA9A051A43F7
:101AD00046F825204E6840F20C45F202DEF8082058
:101AE00054BF22EA080242EA0802C4F20105CEF815
:101AF00008202A68B30254BF22EA080242EA080218
:101B00002A60B303DEF8042054BF22EA080242EA46
:101B10000802F303CEF80420DEF800204FF00103A2
:101B200054BF22EA080242EA0802CEF800200E68FA
:101B30000AF1010A36FA0AF204F1040400F0A08066
:101B400003FA0AFB16EA0B08F1D04E68664511DC71
:101B5000122E55D8DFE806F0340A44485454545441
:101B60005454545454545454544C5000D1F80C9080
:101B700046E000BF4FF6FF72C1F2210296420FDC31
:101B80000022C1F2110296421AD00022C1F21202C2
:101B9000964215D00022C1F22102964210D02FE0C9
:101BA0000022C1F2220296420AD00022C1F2310282
:101BB000964205D00022C1F23202964220D100BFE7
:101BC0008A684AB1012A14BFC0F814B0C0F810B036
:101BD0004FF0080914E000BF4FF0040910E000BF07
:101BE000CA6802F108090BE04FF0000908E000BFE5
:101BF000CA6802F1040903E0CA6802F10C0900BFD7
:101C000022460646B8F5807F24BF203A043637685E
:101C10000F25954027EA050509FA02F22A433260AA
:101C2000CA79D2067FF583AF41F21803C4F20203EA
:101C30001A68AEF57E7642F001021A601A6802F068
:101C400001020192019A2AF0030256F802B040F60E
:101C50000002C4F20102904210D040F60042C4F2E9
:101C6000010290423FF428AF41F20002C4F20102A7
:101C7000009F904208BF02271FE700BF00271CE714
:101C800002B0BDE8F08F0000002A08BF090401611E
:101C90007047000040F2B450C2F200000068704784
:101CA000002804BF01207047F0B581B0044690F8C9
:101CB0003D0028B9002084F83C00204600F0E4FDF7
:101CC000242084F83D002068016821F001010160B2
:101CD000016841F400410160016821F400410160A4
:101CE00000F09CFF636848F2A16CC0F2010C40F662
:101CF0000011C0F23D0163453CBF48F28041C0F293
:101D00001E01884202D2012001B0F0BD4DF6836170
:101D1000C4F21B31A0FB01122168970CD1F804E03A
:101D20004FF496762EF03F0545EA92454D60774395
:101D300048F638160D6AC0F24106A7FB067625F074
:101D40003F07634538BF960C721C3A430A62CA6962
:101D500048F2A0664CF6FF77C0F20106B34222EAD1
:101D600007020BD801385B00B0FBF3F001306FF3D2
:101D70001F30042898BF04201BE000BFA76801386B
:101D800057B119277B43B0FBF3F001306FF31F30DD
:101D900070B100F5804007E003EB4303B0FBF3F0C4
:101DA00001306FF31F3018B100F5004001E000BFB3
:101DB00001201043C8610868D4E9072320F0C0005F
:101DC000104318430860886848F2FF3204F10C079A
:101DD00090438CCF18431043A6698860C86820F0F0
:101DE000FF0038433043C860086840F001000860D5
:101DF00000202021206484F83D10206384F83E00F8
:101E000001B0F0BD2DE9F04784B0044600201F4624
:101E1000164689460290FFF73DFF94F83D102029B1
:101E200024D10546206800BF816989071AD5FFF7CC
:101E300031FF411B20681A29F6D381698907F3D540
:101E400000202021206384F83D1084F83E00216C9E
:101E500041F02001216484F83C00022004B0BDE878
:101E6000F08700BF94F83C10012903D1022004B090
:101E7000BDE8F087012184F83C100168C90703D14F
:101E8000016841F0010101600168DDF8308021F452
:101E900000610160222184F83D10102184F83E1079
:101EA0000021216466626785618D0227C0F2010707
:101EB0002185A7F10211E162E16A026811F5803F14
:101EC00042F48062026018BF01293DD1016841F4EB
:101ED0008071016020464FF00111002243460095B9
:101EE00002F088F950B120680068C00544BF4FF483
:101EF00000702064012004B0BDE8F0872069B0F5CF
:101F0000804F27D149F00100C0B2216842460861E4
:101F1000204639462B4602F053FA0028EAD1208D9C
:101F200002284BD001285FD0002840F073800020A9
:101F300003902068416903918169039103990168C5
:101F400041F40071016071E00829BFD0216B1129B3
:101F5000BCD0BFE7062000EAD916206806F1F001E0
:101F60000161B91D204642462B4602F029FA00289D
:101F7000C0D120685FFA89F10161204639464246A6
:101F80002B4602F01DFA0028B4D1002003902068EF
:101F900000224169434603918169039103990168D5
:101FA00041F48071016020464FF00111009502F06C
:101FB00021F9002897D146F0F100A6E720680168D2
:101FC00041F400610160EFF3108072B600200390CD
:101FD000206841690391816903910399016821F4A3
:101FE0008061016062B621E02068016821F48061AF
:101FF0000160EFF3108072B6002003902068416901
:102000000391816903910399016841F400710160B2
:1020100062B60BE02068016841F480610160002134
:10202000039141690391806903900398208D0028F2
:1020300000F0CC8040F2E8094BF2895A0237C2F234
:102040000009C1F2F84A23260EE000BF10690870AB
:10205000606A218D01306062481E2085618D0139E2
:102060006185010400F0B28080B203280CD80228F8
:102070002CD001284AD1204641462A4602F00CFACB
:10208000002800F09F8035E7204641462A4602F0AE
:1020900003FA00287FF42EAF2068616A0069087097
:1020A000606A2268411C208D616201382085638D41
:1020B000013B638553695B07D3D580B20328C5D143
:1020C000106820F480601060C0E700BF20463946E9
:1020D00000224346009502F08DF800287FF40AAFF5
:1020E000EFF3108072B62068616A026842F40072F1
:1020F000026000690870606A218D01306062481ECC
:102100002085608D0138608562B65BE020463946E7
:1021100000224346009502F06DF800287FF4EAAEF5
:102120002068016821F480610160EFF3108072B6CD
:102130002068616A00690870606A218D0130013988
:1021400060622185618D01396185D9F80010C90867
:10215000A1FB0A12110A71430291029901390291FD
:10216000029900293ED021684A6952071AD402997F
:10217000013902910299A9B321684A69520711D421
:10218000029901390291029961B321684A695207A3
:1021900008D4029901390291029919B321684A6958
:1021A0005207DAD50A6842F400720A6009690170C0
:1021B000606A218D01306062481E2085608D013883
:1021C000608562B62068616A006940E7202084F873
:1021D0003D00002084F83E0084F83C0004B0BDE8D7
:1021E000F08700BF00202021206384F83D1084F890
:1021F0003E00216C41F02001216462B684F83C006D
:10220000012004B0BDE8F0872DE9F04383B01E46FD
:10221000174689460446FFF73DFD94F83D102029F6
:1022200024D10546206800BF816989071AD5FFF7C8
:1022300031FD411B20681A29F6D381698907F3D53E
:1022400000202021206384F83D1084F83E00216C9A
:1022500041F02001216484F83C00022003B0BDE875
:10226000F08300BF94F83C10012903D1022003B091
:10227000BDE8F083012184F83C100168C90703D14F
:10228000016841F001010160016840F2020821F497
:1022900000610160212184F83D10102184F83E1076
:1022A0000021216467626685618DC0F20108218585
:1022B000A8F10211E162E16A0A9E11F5803F18BFA0
:1022C00001291DD1016841F48071016020464FF061
:1022D000011100223346009501F08CFF50B12068B7
:1022E0000068C00544BF4FF400702064012003B0B3
:1022F000BDE8F0832069B0F5804F07D1FE2015E0DE
:102300000829DFD0216B1229DCD0DFE7062000EAA4
:10231000D9102168F030086108F1060120463246E4
:102320002B4602F04DF80028E0D1FF20216800EA9A
:10233000090008612046414632462B4602F040F82B
:102340000028D3D100200290206841690291806961
:102350000290029806E000BF204631462A4601F06E
:10236000EBFE18BB208D68B3204631462A4602F0AA
:10237000DBF8D8B9606A2168024612F8013B0B61AC
:102380006262628D013A6285228D531E23854F69F8
:102390007F07E1D51B04DFD0437802300B61606218
:1023A000608D01386085901E2085D5E7206C04285B
:1023B0009CD12068016841F400710160012003B0E4
:1023C000BDE8F0832068016841F4007101602020BD
:1023D00084F83D00002084F83E0084F83C0003B0FF
:1023E000BDE8F0832DE9F04F85B004460020994602
:1023F00016460F460490FFF74DFC94F83D10202937
:1024000027D10546206800BF816989071CD5FFF7E1
:1024100041FC411B20681A29F6D381698907F3D54D
:1024200000202021206384F83D1084F83E00206CB9
:1024300004F13C0A40F020002064022000218AF8C8
:10244000001005B0BDE8F08FA2461AF83C1F012924
:1024500004D1022005B0BDE8F08F00BF01228AF848
:1024600000200368DDE90F180E9ADB0703D103682B
:1024700043F001030360036823F400630360222038
:1024800084F83D00402084F83E0000202064626211
:102490006185608D394620850020CFF6FF70E062AF
:1024A000204632464B46CDE9008501F057FD18B174
:1024B000012005B0BDE8F08F208D022810D0012842
:1024C00024D0002838D1002003902068416903916E
:1024D000816903910399016841F40071016037E05B
:1024E0002068016841F400610160EFF3108072B66A
:1024F0000020039020684169039181690391039949
:10250000016821F48061016062B621E02068016801
:1025100021F480610160EFF3108072B60020039017
:10252000206841690391816903910399016841F42D
:102530000071016062B60BE02068016841F48061BF
:102540000160002103914169039180690390039820
:10255000208D002800F0CA80042740F2E8094BF2E1
:10256000895BC0F20107C2F20009C1F2F84B2326D1
:1025700017E000BF204641462A4601F08DFF0028A3
:1025800096D12068616A00690870606A218D013007
:102590006062481E2085618D01396185010400F06B
:1025A000A58080B2032865D8022800F07F8001282A
:1025B000E0D02046394600224346009501F01AFE3D
:1025C00000287FF475AF2068016821F48061016004
:1025D000EFF3108072B62068616A00690870606A63
:1025E000218D0130013960622185618D013961855C
:1025F000D9F80010C908A1FB0B12110A714304910C
:102600000499013904910499002900F07B80216824
:102610004A6952071DD4049901390491049900298B
:1026200070D021684A69520713D404990139049182
:102630000499002966D021684A69520709D404998F
:1026400001390491049900295CD021684A69520734
:10265000D6D50A6842F400720A6009690170606A9E
:10266000218D01306062481E2085608D01386085B3
:1026700062B686E7204641462A4601F00DFF002853
:102680007FF416AF2068616A00690870606A22688A
:10269000411C208D616201382085638D013B63857B
:1026A00053695B077FF57AAF10696DE720463946BD
:1026B00000224346009501F09DFD00287FF4F8AE0E
:1026C000EFF3108072B62068616A026842F400720B
:1026D000026000690870606A218D01306062481EE6
:1026E0002085608D0138608562B64AE7202084F835
:1026F0003D00002084F83E0000218AF8001005B05B
:10270000BDE8F08F00202021206384F83D1084F87C
:102710003E00206C40F02000206462B601200021C1
:102720008AF8001005B0BDE8F08F00002DE9F043F5
:1027300083B0994616460F460446FFF7ABFA94F865
:102740003D10202924D10546206800BF81698907F2
:102750001AD5FFF79FFA411B20681A29F6D3816921
:102760008907F3D500202021206384F83D1084F8E8
:102770003E00216C41F02001216484F83C000220DD
:1027800003B0BDE8F08300BF94F83C10012903D1E9
:10279000022003B0BDE8F083012284F83C200368E6
:1027A000DDE90B180A9ADB0703D1036843F0010344
:1027B0000360036823F400630360212084F83D0074
:1027C000402084F83E000020206462626185608DB4
:1027D000394620850020CFF6FF70E0622046324661
:1027E0004B46CDE9008501F043FC18B1012003B050
:1027F000BDE8F083208D98B9204641462A4601F075
:102800009BFC88B3206C0428F0D12068016841F457
:1028100000710160012003B0BDE8F0830004EBD03B
:10282000204641462A4601F07FFE0028EAD1616A2F
:102830002268084610F8013B1361238D6062581E20
:102840002085678D013F678557697F07E6D50704B7
:10285000E4D048781061881C6062981E2085618DE4
:1028600001396185DAE700BF2068016841F4007131
:102870000160202084F83D00002084F83E0084F8A8
:102880003C0003B0BDE8F08310B586B045F20041CE
:102890000068C4F2000100228842049202D006B00F
:1028A00010BD00BF41F21804C4F20204206840F0D9
:1028B00008002060206800F0080001900198C02006
:1028C0000290122003900320059001F5384002A9E0
:1028D000FFF7D2F8606840F400106060606800F4B0
:1028E00000100190019806B010BD000040F24C00AD
:1028F00040F2B451C2F20000C2F2000100780A684E
:10290000104408607047000080B542F20000C4F235
:102910000200016841F010010160032000F08CF812
:102920000F2000F005F800F027F8002080BD00001F
:1029300070B540F24C06C2F2000640F2E80132786F
:10294000C2F200014FF47A730968B3FBF2F2044655
:10295000B1FBF2F1084600F089FB0F2C4FF00105A6
:1029600008D838B94FF0FF3021460022002500F08A
:1029700037F87460284670BD82B041F21800C4F286
:1029800002000168022241F001010160016801F0CA
:10299000010101910199416841F080514160406815
:1029A00000F08050009000980420C4F201000168FB
:1029B00062F31A61016002B070470000002848BF4E
:1029C000704700F01F01012202FA01F11C2202EA05
:1029D000D0004EF20012CEF200028150704700008B
:1029E00010B54EF60C5CCEF2000CDCF80030C3F3F0
:1029F000022E8EF00704042C28BF0424BEF103032A
:102A00004FF0FF3E0EFA04F438BF0023A143994073
:102A10000EFA03F39A43114300F00F0200F16043F2
:102A20000901043A03F564436244002848BF02F1F7
:102A30000C03197010BD00004EF60C51CEF20001CF
:102A40000A684FF6FF031A4060F30A2242F08060E2
:102A500040F0FD7008607047002804BF01207047F7
:102A60002DE9F04381B042F20008C4F202080446A6
:102A7000D8F800000D4600F0070088420CD2D8F8C4
:102A8000000020F007002843C8F80000D8F8000034
:102A900000F00700A8426CD1206841F204098107C8
:102AA000C4F2020917D5410705D5D9F8001041F441
:102AB000E061C9F80010010705D5D9F8001041F40C
:102AC0006051C9F80010D9F80010A26821F0F00197
:102AD0001143C9F80010C00742D1D8F8000000F037
:102AE0000700A8420CD9D8F8000020F007002843BE
:102AF000C8F80000D8F8000000F00700A84238D15C
:102B00002068410707D5D9F80010E26821F4E06198
:102B10001143C9F80010000708D5D9F80000216951
:102B200020F4605040EAC100C9F80000D9F8002044
:102B300002F00C00082841F20020C0F27A0051D1C6
:102B400048F21803C2F38341C0F60003595CD20374
:102B50003CD440F60010C0F23D00484342E000BFC4
:102B6000606802280AD001282AD159F8041C890378
:102B700008D4012001B0BDE8F08300BF59F8041C5F
:102B80008901F6D5D9F8001021F003010843C9F8EE
:102B90000000FFF77FF8064641F28837D9F80000B9
:102BA000616800F00C00B0EB810F96D0FFF772F86F
:102BB000801BB842F2D9032001B0BDE8F08300BF0A
:102BC00059F8041C8907D4D5DCE700BFD9F80020E8
:102BD00047F6EC73C2F34042C0F600039A5C4843E8
:102BE000B0FBF2F0D9F8001047F6D472C1F303112C
:102BF000C0F60002515C40F2E80220FA01F140F216
:102C00005000C2F200000068C2F200021160FFF73B
:102C10008FFE002001B0BDE8F083000040F2E80024
:102C200041F20401C2F20000C4F202010068096826
:102C300047F6E472C1F30221C0F60002515CC840BD
:102C40007047000040F2E80041F20401C2F20000C7
:102C5000C4F202010068096847F6E472C1F3C221B8
:102C6000C0F60002515CC84070470000002804BF55
:102C7000012070472DE9F04182B00446007841F20E
:102C80000006C007C4F202060CD0706800F00C0009
:102C9000042840F081803068800303D560680028F4
:102CA00000F04E81207880071BD5706810F00C0F63
:102CB00009D0706800F00C00082840F08B80706824
:102CC000C00300F187803068800703D520690128A0
:102CD00040F036813068616920F0F80040EAC100B8
:102CE00030602078000713D4207840072CD4E569A1
:102CF000002D00F02081706800F00C00082840F0E2
:102D0000AF80012D40F00C81012002B0BDE8F081C0
:102D1000A069002800F08C800020C4F2422001212C
:102D2000C0F88014FEF7B6FF054600BF706A800742
:102D300000F1BA80FEF7AEFF401B0228F6D903204F
:102D400002B0BDE8F08100BFF0695FEAC00808D4B6
:102D5000F06940F08050F061F06900F08050009020
:102D6000009847F20007C4F200073868C0054DD448
:102D7000386840F480703860FEF78CFF054600BF6D
:102D80003868C00542D4FEF785FF401B6428F7D998
:102D9000032002B0BDE8F081706800F00C00082844
:102DA00003D17068C0033FF576AF6068002800F07B
:102DB0000981B0F5A02F00F01D81B0F5803F00F033
:102DC0001D81306820F480303060306820F480202D
:102DD00017E100BF2069002840F20000C4F2422041
:102DE00000F08C8001210160FEF754FF054600BF12
:102DF000306880073FF56EAFFEF74CFF401B02289E
:102E0000F6D9032002B0BDE8F08100BFE0680028D9
:102E100000F09A80052800F0B180012800F0B2800F
:102E2000306A20F001003062306A20F00400ACE02B
:102E30000020C4F242200021C0F88014FEF72AFFCF
:102E4000054600BF706A80077FF54EAFFEF722FF90
:102E5000401B0228F6D9032002B0BDE8F08100BF74
:102E60000027C4F2422700203866FEF713FF022D28
:102E700005460DD13068800140F1D680FEF70AFF8B
:102E8000401B02284FF00300F4D902B0BDE8F081E6
:102E9000306880014FD5FEF7FDFE401B02284FF041
:102EA0000300F5D9F1E700BF40F2E800C2F20000EC
:102EB000006844F6D351C1F26201A0FB0101480A47
:102EC000019000BF00BF0198411E002801913FF40E
:102ED0000BAF00BF0198411E002801913FF404AFE1
:102EE00000BF0198411E002801913FF4FDAE00BFD4
:102EF0000198411E00280191E4D1F5E6002101600E
:102F0000FEF7C8FE054600BF306880077FF5E9AED2
:102F1000FEF7C0FE401B02284FF00300F4D9B4E7CF
:102F20007068216A00F480328A4209D1616A00F433
:102F30007010884204D1002002B0BDE8F08100BFCB
:102F4000012002B0BDE8F081306A20F0010030625B
:102F5000306A20F004003062FEF79CFE054641F224
:102F6000883700BF306A800722D5FEF793FE401BEA
:102F7000B8424FF00300F5D987E700BF306A40F050
:102F800004003062306A40F001003062FEF782FED9
:102F9000054641F2883700BF306A800708D4FEF743
:102FA00079FE401BB842F7D9032002B0BDE8F0819A
:102FB000B8F1000F3FF59BAEF06920F08050F06152
:102FC00095E600BF306820F480303060306820F42F
:102FD00080203060FEF75EFE054600BF306880034B
:102FE0007FF560AEFEF756FE401B64284FF00300ED
:102FF000F4D94AE7306840F480203060306840F40B
:1030000080303060FEF746FE054600BF3068800322
:103010003FF548AEFEF73EFE401B6428F6D903207C
:1030200002B0BDE8F08100BF206AB0F5803F05D155
:103030007168A26821F40031114371607168626A9D
:1030400021F4741111430843706001203866FEF7C3
:1030500021FE0446306880013FF56DAFFEF71AFE91
:10306000001B02284FF00300F4D90EE7411E002098
:10307000B0EB116F1CBF012070474EF21002CEF270
:10308000000251604EF62351CEF20001F0230B7086
:10309000072190601160704790F83C20012A4FF0A2
:1030A000020236D010B580F83D200268D2F804E064
:1030B000D2F808C00C682EF07003234340F2FF746E
:1030C000C4F20004A24253600ADCB2F1804F13D074
:1030D00040F20043C4F200039A420DD011E000BF59
:1030E00042F60043C4F201039A4205D040F60003C1
:1030F000C4F200039A4204D149682CF080031943BA
:1031000091600121002280F83D1080F83C20BDE84C
:10311000104010467047000080B586B0006800215E
:10312000B0F1804F049101D006B080BD41F218008B
:10313000C4F20200016841F004010160006802A9C4
:1031400000F00400019001980F20029002200390EB
:10315000059040F60000C4F20100FEF78DFC06B0B9
:1031600080BD000090F83C30012B04BF0220704766
:103170004FEAB202032A3DD82DE9F043DFE802F01E
:1031800002407CB6036842F600461D6A1A6AC4F221
:10319000010622F001021A621A465C6852F818CF42
:1031A000B3428E68D1F800E025F0020545EA060535
:1031B0000CD1CE68D1E9057824F4407425F00C05D3
:1031C00026F004063C43354344EA08042CF0730718
:1031D00047EA0E075C609F614F6809695F631D6283
:1031E0009F6947F008079F619F6927F004079F6167
:1031F000ACE000BF0121002280F83C200846704767
:10320000036842F600461D6A1A6AC4F2010622F0FB
:1032100010021A621A46D3F804C052F8184FB3428B
:103220008E68D1F800E025F0200545EA06150FD19B
:10323000CE68D1E905986FF0400725F0C00507EA90
:10324000061635432CF4406748EA090647EA860C1F
:1032500024F4E64444EA0E27C3F804C09F614F6893
:1032600009699F631D629F6947F400679F619F69B9
:1032700027F480679F6168E0036842F600461D6A94
:103280001A6AC4F2010622F480721A621A46D3F84E
:1032900004C052F81CEFB3428E680C6825F4007528
:1032A00045EA06250FD1CE68D1E90598360240F2ED
:1032B000FF4725F44065BE4335432CF4405748EAA8
:1032C000090647EA061C2EF073072743C3F804C01B
:1032D000DF614F680969DF631D62DF6947F0080736
:1032E000DF61DF6927F00407DF612FE0036842F642
:1032F0000047D3F820C01A6AC4F2010722F48052B2
:103300001A621A465C6852F81C5FD1F800E08E68B9
:10331000BB4204D14F6924F4804444EA87142CF45E
:10332000005747EA063725F4E64646EA0E265C6073
:10333000DE614E6809691E641F62DF6947F4006739
:10334000DF61DF6927F48067DF61090213681943D1
:1033500011600021BDE8F043002280F83C200846BF
:1033600070470000002804BF0120704710B50446D4
:1033700090F83D0028B9002084F83C00204600F079
:1033800067F8022084F83D00206840F2FF7302686D
:10339000C4F2000342F6004C9842C4F2010C15DC62
:1033A000B0F1804F1AD040F20041C4F200018842CF
:1033B00014D0984218DCB0F1804F1DD040F200418B
:1033C000C4F20001884217D01AE000BF604505D062
:1033D00040F60001C4F200018842EAD1A16822F05F
:1033E00070020A439842E6DD604505D040F60001D0
:1033F000C4F20001884203D1216922F440720A43D9
:10340000A36922F08001D4F804E0E2681943604522
:103410000160C262C0F828E002D16169CCF83010C6
:1034200001214161002084F8461084F83E1084F8A0
:103430003F1084F8401084F8411084F8421084F85A
:10344000431084F8441084F8451084F83D1010BDF2
:103450000068B0F1804F18BF704781B041F21C0086
:10346000C4F20200016841F001010160006800F04F
:1034700001000090009801B07047000041B1082998
:1034800010D0042914BF00F1410200F13F020BE00B
:1034900090F83E20012A1CBF01207047022280F8CC
:1034A0003E2013E000F140021278012A1CBF0120E7
:1034B00070470222082907D0042914BF80F8412050
:1034C00080F83F2002E000BF80F84020006801F053
:1034D0001F010122036A8A4023EA02010162036A92
:1034E00042F64441C4F201011A43A1F14403984257
:1034F00002620FD040F2FF71C4F20001884213DC77
:10350000B0F1804F1CD040F20041C4F2000188426B
:1035100016D01AE00A6842F400420A6040F2FF71D5
:10352000C4F200018842EBDD42F60041C4F2010121
:10353000884205D040F60001C4F20001884204D15F
:10354000816801F00701062903D0016841F00101FB
:1035500001600020704700007047000070470000C5
:10356000B0B582B0044600680168C368426901F0E2
:103570002F05202D03F0200506D12DB1204602B0E5
:10358000BDE8B04001F058BE5FEA017C1EBF02F00A
:10359000010E03F4907212EB0E0243D1226BCD06A2
:1035A00018D5012A16D113F0100213D00021019171
:1035B00001680191416801910199406940063BD43D
:1035C000A08DE18DE28D002A18BF884240F0F28183
:1035D00002B0B0BD0A0640F1E78013F0800200F0AF
:1035E000E38094F841102129F2D1A168B1F5805F00
:1035F00003D12169002900F06382216A4A1C2262FA
:1036000009784160E18C01390A04E184E0D1C168A4
:1036100021F08001C160C16841F04001C16002B089
:10362000B0BD00BFCA0718BF13F4807240F0D0804D
:103630004A0700F1D380D8E0E06B016849688AB29C
:10364000002AC5D0A38D9A42C2D2E1858069202884
:1036500000F09E80206850E8030F216820F48070FD
:1036600041E80302DAB1206850E8030F216820F432
:10367000807041E8030292B1206850E8030F21688E
:1036800020F4807041E803024AB1206850E8030F3B
:10369000216820F4807041E80302002ADAD1206812
:1036A00050E8050F216820F0010041E80502C2B38F
:1036B000206850E8050F216820F0010041E805026C
:1036C0007AB3206850E8050F216820F0010041E836
:1036D000050232B3206850E8050F216820F0010090
:1036E00041E80502002ADAD11BE000BF206850E85B
:1036F000050F216820F0400041E80502DAB120689A
:1037000050E8050F216820F0400041E8050292B121
:10371000206850E8050F216820F0400041E80502CC
:103720004AB1206850E8050F216820F0400041E8C8
:103730000502002ADAD1202084F84200002020630C
:10374000206850E8030F216820F0100041E80302D0
:10375000DAB1206850E8030F216820F0100041E83A
:10376000030292B1206850E8030F216820F0100096
:1037700041E803024AB1206850E8030F216820F0B5
:10378000100041E80302002ADAD1E06BFDF7F2FFF6
:1037900002206063A08DE18D401A81B2204602B004
:1037A000BDE8B040FFF7D8BE49067FF511AF13F072
:1037B00040013FF40DAFC16821F04001C1602021FC
:1037C000204684F8411002B0BDE8B04000F0C2BB12
:1037D000626C42F0010262644A0706D5BEF1000F36
:1037E00003D0626C42F0020262648A0706D5BEF121
:1037F000000F03D0626C42F004026264BCF1000F5F
:1038000006D55EEA050203D0626C42F008026264EB
:10381000626C002A3FF4DCAE890604D51DB1204657
:1038200001F00AFD20684069616C00F0400001F081
:103830000801401800F0B680206850E8030F2168A6
:1038400020F4907041E80302BAB3206850E8030FF7
:10385000216820F4907041E8030272B3206850E8B8
:10386000030F216820F4907041E803022AB3206816
:1038700050E8030F216820F4907041E80302002A09
:10388000DAD11AE0206850E8050F216820F0010025
:1038900041E80502DAB1206850E8050F216820F000
:1038A000010041E8050292B1206850E8050F216847
:1038B00020F0010041E805024AB1206850E8050FF8
:1038C000216820F0010041E80502002ADAD1206BCE
:1038D000012824D1206850E8030F216820F010004F
:1038E00041E80302DAB1206850E8030F216820F0B4
:1038F000100041E8030292B1206850E8030F2168EC
:1039000020F0100041E803024AB1206850E8030F9C
:10391000216820F0100041E80302002ADAD12020BB
:1039200084F842000020206320684069400640F18E
:10393000C180206850E8050F216820F0400041E870
:103940000502DAB1206850E8050F216820F0400038
:1039500041E8050292B1206850E8050F216820F087
:10396000400041E805024AB1206850E8050F21688F
:1039700020F0400041E80502002ADAD1E06B00287F
:1039800000F0988045F22D21C0F600014163FDF75B
:1039900015FF00283FF41CAEE06B416B02B0BDE8A0
:1039A000B04008472046FFF7D9FD0020606402B010
:1039B000B0BD00BF401A00BF216851E8031F226854
:1039C00021F4907142E80313BBB3216851E8031F4F
:1039D000226821F4907142E8031373B3216851E81F
:1039E000031F226821F4907142E803132BB321686E
:1039F00051E8031F226821F4907142E80313002B61
:103A0000DAD11AE0216851E8051F226821F001018E
:103A100042E80513DBB1216851E8051F226821F057
:103A2000010142E8051393B1216851E8051F22689E
:103A300021F0010142E805134BB1216851E8051F4F
:103A4000226821F0010142E80513002BDAD1202180
:103A500084F8421000212163216851E8031F226885
:103A600021F0100142E80313DBB1216851E8031F84
:103A7000226821F0100142E8031393B1216851E854
:103A8000031F226821F0100142E803134BB12168A3
:103A900051E8031F226821F0100142E80313002BB4
:103AA000DAD1022281B22046626302B0BDE8B040A2
:103AB000FFF752BD204602B0BDE8B040FFF74EBD53
:103AC000216A31F8022B6FF35F224260216299E58F
:103AD000002804BF0120704710B5044690F841004B
:103AE00028B9002084F84000204600F063F8242024
:103AF00084F841002068D4E90212C36823F400531B
:103B0000C360036923F440531A430261D4E90423D8
:103B10001143C268194341F20C639A431143C160D7
:103B20004169A26921F44071114343F60002C4F2D5
:103B300001029042416103D0FFF770F802E000BF3C
:103B4000FFF780F8D4E90023192148439900B0FB1E
:103B5000F1F048F21F5CC5F2EB1CA0FB0C314FF6F4
:103B60009C734909C0F6FF7301FB0300322303EB8A
:103B70000010A0FB0C03F02000EA531000EB011032
:103B8000C3F34311084490601069202120F4904051
:103B90001061506920F02A005061D06840F4005054
:103BA000D0600020606484F8411084F842106063A3
:103BB00010BD000070B586B040F60004C4F20104E8
:103BC000006804F5405100268842049602D006B0F1
:103BD00070BD00BF41F21800C4F20200016802ADDE
:103BE00041F480410160016801F480410191019933
:103BF000016841F0040101600068294600F00400FA
:103C0000019001984FF4007002900220039003206D
:103C100005902046FDF730FF4FF48060CDE90206A5
:103C2000204629460496FDF727FF25200021002283
:103C3000FEF7D6FE2520FEF7C1FE06B070BD0000DF
:103C400090F84230202B07D100294FF0010318BF14
:103C5000002A05D11846704702231846704700BF56
:103C600000230363816222218285C285436480F838
:103C700042100169006819B1C16841F48071C160E6
:103C8000416941F001014161C16841F02001C16019
:103C900018467047B0B50446FDF7FCFF40F24452A9
:103CA000C2F2000221681268914218BFB0BD40F212
:103CB000B815C2F200050446287801F0AFFE40F2C4
:103CC0004450C2F2000029460122FFF7B9FF02F07A
:103CD00077F8FDF7DFFF001BE860B0BD2DE9F0438A
:103CE00081B0044690F84100202840F0B180884619
:103CF00000294FF0010000F0D6801646002A00F09F
:103D0000D2800020606421201D4684F84100FDF728
:103D1000C1FFA684E684A1680646B1F5805F03D1A1
:103D20002069002800F0988047464FF00008E18C99
:103D30002068002900F0968005F101090BE000BF22
:103D400047B317F8011B4160E18C0139E184E18C34
:103D5000002900F0878001680906F1D4B9F1000F4D
:103D60000AD0EDB1FDF796FF801BA84218D8206855
:103D700001680906F6D5E3E701680906E0D40168A1
:103D800009065CBF01685FEA0161D9D401680906D0
:103D9000F2D5D5E738F8021B00276FF35F21D2E791
:103DA000206850E8030F216820F4D07041E8030236
:103DB000BAB3206850E8030F216820F4D07041E8BE
:103DC000030272B3206850E8030F216820F4D0701A
:103DD00041E803022AB3206850E8030F216820F469
:103DE000D07041E80302002ADAD11AE0206850E8D6
:103DF000050F216820F0010041E80502DAB12068D2
:103E000050E8050F216820F0010041E8050292B159
:103E1000206850E8050F216820F0010041E8050204
:103E20004AB1206850E8050F216820F0010041E800
:103E30000502002ADAD1202084F8410084F84200EB
:103E4000002084F84000032001B0BDE8F08300BFEB
:103E5000022001B0BDE8F0830027E18C2068002932
:103E60007FF46AAF0168490619D4FDB1691C0DD110
:103E70000168490613D4016849065CBF01685FEA1E
:103E800041610CD401684906F2D508E0FDF702FF54
:103E9000801BA8420AD8206800684006F6D520207A
:103EA00084F84100002001B0BDE8F083206850E8AC
:103EB000030F216820F4D07041E80302002A3ED0AD
:103EC000206850E8030F216820F4D07041E8030215
:103ED000AAB3206850E8030F216820F4D07041E8AD
:103EE000030262B3206850E8030F216820F4D07009
:103EF00041E80302002AD9D121E000BF206850E840
:103F0000050F216820F0010041E80502002A3FF476
:103F100092AF206850E8050F216820F0010041E8C9
:103F20000502002A3FF487AF206850E8050F21689A
:103F300020F0010041E80502002A3FF47CAF206830
:103F400050E8050F216820F0010041E80502002A31
:103F5000D4D170E770470000FEE700002DE9F0477C
:103F600082B0044600689A460B9D0A9E03689146FB
:103F700043F48062026002680F4642F4807101607F
:103F800020464FF0011100223346009500F032F92F
:103F900050B120680068C00544BF4FF40070206431
:103FA000032002B0BDE8F08740F202082068C0F2AA
:103FB000010807F0FE0707612046414632462B46BE
:103FC00000F0FEF920B1012002B0BDE8F08700BF8B
:103FD0000020019020682A4641690191806931469C
:103FE00001900198204600F09FFAB0B92068BAF11C
:103FF000010F09D04FEA19210161204631462A46B6
:1040000000F092FA48B920685FFA89F10161204610
:1040100031462A4600F088FA60B1206C0428D2D1DB
:104020002068016841F400710160012002B0BDE820
:10403000F08700BF206800220168334641F4807198
:10404000016020464FF00111009500F0D3F80028E0
:104050009FD147F0010C27682046414632462B4647
:10406000C7F810C002B0BDE8F04700F0A9B90000E1
:104070002DE9F04383B0044600680D4601680A9FAD
:104080000B9E41F4807199469046016020464FF0A6
:10409000011100223B46009600F0ACF850B12068B8
:1040A0000068C00544BF4FF400702064032003B0D3
:1040B000BDE8F083206805F0FE0101610221C0F235
:1040C000010120463A46334600F07AF920B101203A
:1040D00003B0BDE8F08300BF0020029020683246A4
:1040E000416902918069394602900298204600F0A9
:1040F0001BFA58B1206C0428E9D12068016841F40A
:1041000000710160012003B0BDE8F0832068B9F1BF
:10411000010F0AD04FEA1821016120463946324684
:1041200000F002FA0028E5D120685FFA88F1016109
:10413000002003B0BDE8F08370B50368044653F86F
:10414000140F400711D40E46481C29D086BB00BF6F
:104150001868400527D4FDF79DFD236853F8140F18
:10416000400737D518684007F2D5002070BD00BF62
:1041700018684007F9D41868400514D41868400737
:10418000F3D4186840050ED418684007EDD41868B9
:10419000400508D4186840074FF0000048BF70BDC4
:1041A00018684005E4D56FF480601860042012E0C0
:1041B000154603E053F8140F4007D6D4186840059D
:1041C000F1D4FDF767FD401B2368B042F2D958696E
:1041D0004007EFD4202000212022216384F83D20D5
:1041E00084F83E10226C10432064012084F83C10B7
:1041F00070BD00002DE9F041054600681E461446DA
:1042000001F47F0201338FB242D0DDF81880B2F59D
:10421000803F40F0878040693840C01BB0FA80F092
:104220004009A04240F0C8804EB924E040693840BF
:10423000C01BB0FA80F04009A04240F0BD80FDF7FD
:1042400029FDA0EB08012868B142EFD94169394046
:10425000C91BB1FA81F14909A142E7D19BE000BF36
:1042600040693840C01BB0FA80F04009A0424FF0CE
:10427000000040F0A280FDF70DFD2868416939403B
:10428000C91BB1FA81F14909A142E9D183E000BF1C
:10429000B2F5803F24D100BF41693940C91BB1FA52
:1042A00081F14909A14240F0878041693940C91B29
:1042B000B1FA81F14909A14240F07E80416939405B
:1042C000C91BB1FA81F14909A14275D1416939404F
:1042D000C91BB1FA81F14909A142DDD06CE000BFF0
:1042E00081693940C91BB1FA81F14909A14263D101
:1042F00081693940C91BB1FA81F14909A1425BD1F9
:1043000081693940C91BB1FA81F14909A14253D1F0
:1043100081693940C91BB1FA81F14909A142DFD055
:104320004AE000BF80693840C01BB0FA80F0400905
:10433000A04241D146B923E080693840C01BB0FAA1
:1043400080F04009A04237D1FDF7A4FCA0EB0801A2
:104350002868B142F0D981693940C91BB1FA81F1AD
:104360004909A142E8D116E080693840C01BB0FA83
:1043700080F04009A0424FF0000018BFBDE8F08176
:10438000FDF788FC286881693940C91BB1FA81F1C1
:104390004909A142E8D100202021286385F83D1079
:1043A00085F83E00296C41F02001296485F83C0025
:1043B0000120BDE8F08100BF0020BDE8F0810000D1
:1043C000F0B581B0044600681D4643698FB203EA28
:1043D0000701B94202D1002001B0F0BD4169164683
:1043E00001323FD049053FD4CEB100BFFDF752FCAA
:1043F000411B2068B14203D941693940B94215D106
:1044000041693940B942E6D041694905EED52BE012
:1044100041693940B942DED04169490524D4FDF7EC
:1044200039FC206841693940B942F1D0202023E0AD
:1044300041693940B942CED04169490514D4416936
:104440003940B942C7D0416949050DD44169394065
:10445000B942C0D04169490506D441693940B942E1
:10446000B9D041694905E3D5016841F400710160A3
:104470006FF480614161042000212022216384F8CF
:104480003D2084F83E10226C1043206484F83C10D8
:10449000012001B0F0BD000070B50446006815466B
:1044A00050F8143F5A063DD40E4629B926E000BF05
:1044B00050F8141F490635D40168C90621D4FDF708
:1044C000E9FB411B2068B142F2D941694906EFD4AA
:1044D00000202021206384F83D1084F83E00206CE9
:1044E00040F0200018E000BFFDF7D4FB206850F832
:1044F000141F4906ECD50168490613D40168C906A2
:10450000F2D56FF01001016000202021206384F8B3
:104510003D1084F83E00206C2064002084F83C00AC
:10452000012070BD002070BD70B50368044653F8CB
:10453000140F000611D40E46481C29D086BB00BFBC
:104540001868400527D4FDF7A5FB236853F8140F1E
:10455000000637D518680006F2D5002070BD00BFF0
:1045600018680006F9D41868400514D418680006C5
:10457000F3D4186840050ED418680006EDD4186806
:10458000400508D4186800064FF0000048BF70BD11
:1045900018684005E4D56FF480601860042012E0CC
:1045A000154603E053F8140F0006D6D418684005EA
:1045B000F1D4FDF76FFB401B2368B042F2D9586974
:1045C0000006EFD4202000212022216384F83D2022
:1045D00084F83E10226C10432064012084F83C10C3
:1045E00070BD00002DE9F04184B0044601250DF1B5
:1045F0000F006426CDE900052046D0217522012355
:104600000296FDF7EFFE9DF80F00682831D14FF0BC
:1046100000080DF10E072046D0216B2201238DF8F2
:104620000E80CDE900750296FEF780F807208DF820
:104630000E002046D02119220123CDE900750296F3
:10464000FEF774F82046D0211C2201238DF80E803D
:10465000CDE900750296FEF769F82046D0211B22AD
:1046600001238DF80E80CDE900750296FEF75EF805
:104670000025284604B0BDE8F08100002DE9F04F88
:104680009FB00F460E210DF16E026426CDE9002188
:10469000D0213B2201230296FDF7A4FEBDF86E0057
:1046A000BDF8706001BA090C398031BABDF872509A
:1046B000090C798029BABDF876B0090CB9809BFA4B
:1046C0008BF1BDF878A0090C39849AFA8AF1BDF80B
:1046D0007A80090C798498FA88F1BDF87490090CF5
:1046E000C0BAB98402F086FC0024C3F6107400221C
:1046F000234602F021FDC7E90201F0BA02F07AFC7C
:104700000022234602F018FDC7E90401E8BA02F0CE
:1047100071FC42F60013C4F2CC03002202F0D4FA7A
:10472000C7E9060199FAB9F003F09AF90021C4F239
:10473000AA3103F097F841F6B861C4F2122103F0F0
:1047400005F838649BFABBF002F054FC46F2000412
:10475000C4F260040022234602F0B6FAC7E90A0157
:104760009AFABAF002F046FC0022234602F0ACFAB4
:10477000C7E90C0198FAB8F002F03CFC002223468D
:1047800002F0A2FAC7E90E01FDF784FA40F2B05434
:10479000C2F200042168401A02F043FC44F2000314
:1047A000C4F28F03002202F08FFACDE91701FDF762
:1047B00071FAB7F90010B7F90420494302FB02115E
:1047C0002060084602F016FC02F03EF900220023A9
:1047D00004460D4603F01CF8B0B9B7F9020002F028
:1047E00009FC22462B4602F06FFA01F04FFF4CF213
:1047F000F8124AF2DC53C1F66322C4F24C0302F011
:104800009BFC159102E000BF002015901690B7F9AF
:104810000000B7F90440404202F0ECFB0546204698
:104820000E4602F0E7FB02460B462846314602F0F0
:104830003DF84CF2F8124AF2DC53C1F66322C4F29E
:104840004C0302F079FC48F20003CCF2560300223C
:1048500006460C4602F0F1FF199748B9D7E9140152
:1048600048F20003C4F25603002202F0DFFF98B9B9
:1048700048F20003C4F2560330462146002202F0FB
:10488000E3FF88B9D7E9140148F20003CCF25603DC
:10489000002202F0D2FF38B940F2A000C2F20000BC
:1048A000C0E906640BE100BF40F2A00BC2F2000BAE
:1048B000D7E90C01DBE90823CDE91064CDE9122327
:1048C00002F02AFE179D189E0246DBE906470B46BA
:1048D0002846314602F030FC22463B4602F038F9C9
:1048E000DBE9102ADBE90C740D900C912846314667
:1048F00053460792CDE90E74CDF810A002F01CFCCF
:104900003A46234602F008FEDBE90E984A46434643
:1049100002F002FE9BE88C000697DBF80C7005970E
:1049200002F016F90246DBE90A470B4628463146F3
:1049300002F002FC22463B4602F00AF9DDF81CB008
:1049400014901A9186F0004128465A46534602F0C8
:10495000F3FBDDE90E2307460C4602F0F9F8CDE93A
:104960000A10384621464A46434602F0F1F882468C
:10497000099089460891DDE905102A46334602F080
:10498000DBFB049B5A4602F0E3F80F9040F2A000D4
:10499000C2F20000149F1A9ED0E904230E913846FB
:1049A000314602F0D5F804460D46384631462246D7
:1049B0002B4602F089F980468B46504649462246EE
:1049C0002B4602F081F90D9E0C9C814607908A4689
:1049D0000691DDE910013246234602F09DFD0746AF
:1049E0000D46404659463A462B4602F0A5FB324654
:1049F000234602F0ADF8064640F2A0000C46C2F293
:104A00000000C0E90664484651463A462B4602F08B
:104A100093FBDDE9122302F09BF840F2A002DDF8DF
:104A200050901A9DC2F20002C2E908019246404627
:104A300059464A462B4602F07FFB02460B46484643
:104A4000294602F069FDCAE90A0140465946DDF8E7
:104A50002C80DDF828B0199F42465B4602F06CFBC3
:104A600002460B464046594602F056FDCAE90C0183
:104A7000DDF81CA0069D1A9B504629464A4602F0C6
:104A80005BFB02460B46DDE9081002F045FD40F2F3
:104A9000A002C2F20002C2E90E0150462946424677
:104AA0005B4602F049FB02460B46DDE90E1002F0C0
:104AB00033FD40F2A002C2F20002C2E9100148F246
:104AC000000324F00041C4F2560330460022C7E937
:104AD000146402F0B9FE0246D7E90A0140F2580612
:104AE000002A04BF81F00041C7E90A01C2F20006B2
:104AF000D6E90823CDE9132302F00EFDDDF85CA012
:104B0000DDF860B00246D6E906450B4650465946E8
:104B100002F012FB22462B4602F01AF8D6E9107377
:104B2000D6E90C5412901191504659463A46CDE9B7
:104B30000F54984602F000FB2A46234602F0ECFC94
:104B4000D6E90E4322460E9302F0E6FC96E82C00CE
:104B50000B95F5680A9501F0FBFF0246D6E90A5667
:104B60000B465046594602F0E7FA2A46334601F012
:104B7000EFFF1A900D468BF0004150463A464346EF
:104B8000464602F0D9FADDE90F238046894601F056
:104B9000DFFF0E9BCDE90F1040464946224601F04B
:104BA000D7FF80460E9089460D91DDE90A105246E6
:104BB0005B4602F0C1FA3A46334601F0C9FF18904D
:104BC00040F25800C2F200001A9FD0E90423179166
:104BD000384629460C9501F0BBFF04460E46384680
:104BE00029462246334602F06FF883460D46099166
:104BF000404649462246334602F066F8DDF84880D2
:104C0000DDF844A081460A900E460B91DDE91510AF
:104C10004246534602F080FC04460F465846294659
:104C200022463B4602F088FA4246534601F090FF86
:104C300040F2580AC2F2000ACDE91501CAE906019C
:104C40004846314622463B4602F076FADDE9132318
:104C500001F07EFF099CDDF868900C9ECAE908010E
:104C6000584621464A46334602F066FA02460B464B
:104C70004846314602F050FC109FDDF83C80CAE9FE
:104C80000A01584621463A46434602F055FA024682
:104C90000B463846414602F03FFC0A9D0B9CCAE990
:104CA0000C01284621464A46334602F045FA0246A0
:104CB0000B46DDE90D1002F02FFCCAE90E01284673
:104CC00021463A46434602F037FA02460B46DDE9F2
:104CD000171002F021FCCAE910011998DDE915212D
:104CE000C0E912211FB0BDE8F08F0000FEE7000010
:104CF000FEE7000070470000B0B50229044609D362
:104D0000481E0239032900F0030107D26422B1B919
:104D10001FE000BF0025C4F220151DE020F00302B3
:104D20000A2042F2107300BF0546043A03FB00F06C
:104D3000FAD148F2A062C0F201026A4349B10129E6
:104D400006D0642302EB82005A43022908BF4200C6
:104D5000104602F09DFE0546204602F045FE02F098
:104D60007FFE0146204602F073FF294602F0A4FEB2
:104D700002F056FEB0BD000080B502F035FE80BDE9
:104D8000B0B582B06FF01A0140F27024002808BF5D
:104D90006FF00A01C2F200048DF8071000212068AC
:104DA0008DF80610ADF804104FF47A750DF1070276
:104DB000802101230095FDF727FA206801AA8021B0
:104DC00003230095FDF71EF8BDF8040000BA000C9F
:104DD00002F027F90023C3F6F063002202F0ACF9D9
:104DE00044F20003C4F25F03002202F0A5F900239D
:104DF000CCF21803002201F0ABFE01F077FE02B006
:104E0000B0BD0000B0B582B06FF01C0140F270245C
:104E1000002808BF6FF00C01C2F200048DF80710E3
:104E2000002120688DF80610ADF804104FF47A7553
:104E30000DF10702802101230095FDF7E5F92068B7
:104E400001AA802103230095FCF7DCFFBDF80400D4
:104E500000BA000C02F0E5F80023C3F6F06300226C
:104E600002F06AF94AF2D7324FF20A73C3F670526F
:104E7000C4F2650302F060F94CF6CD4246F6CC432D
:104E8000CCF6CC42CCF2470301F062FE01F02EFEDC
:104E900002B0B0BD40F27021C2F20001086070475C
:104EA00070B582B040F27026C2F200060446E721D7
:104EB00030688DF806104FF47A750DF106028021E6
:104EC00001230095FDF7A0F930680DF1070280215C
:104ED00001230095FCF796FF9DF8070001AA00F05A
:104EE0007E0040EA0401E6208DF8040030688DF869
:104EF0000510802102230095FDF786F902B070BDF0
:104F000070470000FDF7F2BC704700002DE9F04348
:104F100083B022A000F09EFDFCF7BCFE804601207D
:104F2000FFF770FF40F2B819C2F200090546C9F850
:104F300004000120FFF724FF0646C9F808002846B0
:104F4000FFF71AFF074628460121FFF7D5FE054661
:104F50003046FFF711FF044630460121FFF7CCFE33
:104F6000064640F2B020C2F200001AA13A462B4693
:104F7000CDE90046FBF7A6F9FCF78CFE40F20401F0
:104F8000C2F200018969A0EB08020846C9F81020A6
:104F900003B0BDE8F043FCF76BBC00BF5461736B1A
:104FA00020726561642074656D70657261747572DC
:104FB0006520262072656C61746976652068756D60
:104FC00069646974792069732072756E6E696E67A1
:104FD0000A0A000025642E2564BA432C2072656CF1
:104FE00061746976652068756D6964697479203DBE
:104FF0002025642E256425252052480A0000000043
:1050000070B584B018A000F025FDFCF743FE40F217
:105010001825064640F2A840C2F20005C2F2000080
:105020002946FFF72BFBD5E90223103533CD039535
:105030008DE8130040F21430C2F2000013A1FBF718
:1050400041F9FCF727FE811B40F20400C2F2000088
:1050500040F2B812C069C2F20002516104B0BDE86A
:105060007040FCF705BC00BF5461736B2072656132
:105070006420616363656C65726174696F6E206939
:10508000732072756E6E696E670A0A00416363650C
:105090006C65726174696F6E203D207B4178203DA4
:1050A0002025662C204179203D2025662C20417A40
:1050B000203D2025667D0A0A000000002DE9F04F02
:1050C000CFB0FCF7E7FD0DF1D80A804650466421C9
:1050D000FBF741FA0DF1100948466421FBF73BFA52
:1050E00040F2B81BC2F2000BDBE9010702F002FB41
:1050F000044638460D4602F0FDFA07460E461EA14C
:10510000504622462B46CDE90076FBF7DBF840F20D
:105110001824C2F2000404F1100783CFD4E902235B
:10512000E6698DE8830018A148460396FBF7CAF8A4
:10513000D4E9062318A11DA8FBF7C4F8012000211B
:1051400000F072F9504600F019FA0020002100F03A
:105150006BF9484600F012FAFCF79CFDA0EB080141
:1051600040F20400C2F20000006ACBF81810FCF70D
:105170007FFB4FB0BDE8F08F54653D252E31662092
:1051800048753D252E316600252E326620252E32AB
:10519000662025302E3266005A3D252E31660000ED
:1051A00070B5FCF777FD044619A000F053FC40F2FF
:1051B000B025C2F200052846FBF7AEF940F244568E
:1051C000C2F2000682B2304629464FF47A73FEF7E7
:1051D00085FD40F21435C2F200052846FBF79CF924
:1051E00082B2304629464FF47A73FEF777FDFCF71A
:1051F00051FD011B40F20400C2F2000040F2B8125F
:10520000406AC2F20002D161BDE87040FCF730BBD9
:105210005461736B2053656E64205541525420696C
:10522000732072756E6E696E670A0000406A002115
:10523000C185C184FEF792B981B090F8421022294D
:1052400021D183680246B3F5805F09D152F8281F47
:1052500052F8183C002B63D003685B680AE000BF7B
:1052600052F8281F13B90369002BF5D003685B6857
:1052700003F07F030B70116801311160C18D01399A
:105280000A04C18502D001B0704700BF0168CA6836
:1052900022F02002CA60CA6822F48072CA604A6999
:1052A00022F001024A61202180F84210002141636E
:1052B000026B012A3CD10163016851E8031F0268B7
:1052C00021F0100142E80313DBB1016851E8031F2C
:1052D000026821F0100142E8031393B1016851E81C
:1052E000031F026821F0100142E803134BB101686B
:1052F00051E8031F026821F0100142E80313002B5C
:10530000DAD101680A68D20606D5002200920A683E
:105310000092496800910099818D01B0FEF71CB997
:10532000026852686FF35F2221F8022B8162A5E7C1
:1053300001B0FEF7AFBC000040F24450C2F20000E2
:10534000FEF70EB9FEE700004EF60C50BFF34F8F8C
:10535000CEF200000168042201F4E061C0F2FA52CA
:1053600011430160BFF34F8F00BF00BF00BF00BFFC
:10537000FAE7000001787B2908BF7047F0B595B0C7
:1053800048F23001C0F60001FBF7C0F8002588B1F3
:1053900048F2300401AEC0F6000400BFE9B246F89E
:1053A0002100002021460135FBF7B0F80028F5D197
:1053B000019CFFE747F6F077C0F600077E68BEB1B4
:1053C00038682146FBF7EEF848B108377E687EB1B1
:1053D00057F8080B2146FBF7E5F80028F6D13268AC
:1053E000E9B201A8904715B0BDE8F040704700BF92
:1053F00003A000F02FFB15B0BDE8F040704700BFE0
:105400005B4572726F725D3A2046696E64206E6F02
:105410007420666F756E6420796F757220636F6D8E
:105420006D616E640A00000080B582B001F1400336
:1054300063F07F036FF07F02012808BF81EA020357
:1054400023F00F00190100F10C0208308DF805005F
:1054500001F10C008DF8060001F108008DF807003D
:1054600040F2A8408DF804204FF0640CC2F2000016
:1054700001AA4E210423CDF800C0FCF7C5FE02B0FE
:1054800080BD0000B0B582B043F63C0040F2A844B5
:10549000C3F63C00C2F200040190642501AA204634
:1054A0004E2104230095FCF7AFFE43F63C00C2F604
:1054B0002C00019001AA20464E2104230095FCF700
:1054C000A3FE3220FCF7D4F942F62C00C8F68C007B
:1054D000019001AA20464E2104230095FCF794FE7A
:1054E0003220FCF7C5F940F60C00C1F61C00019013
:1054F00001AA20464E2104230095FCF785FE3220A8
:10550000FCF7B6F940F60C00C6F66C00019001AA53
:1055100020464E2104230095FCF776FE3220FCF74E
:10552000A7F940F60C00CCF6CC00019001AA204669
:105530004E2104230095FCF767FE3220FCF798F912
:1055400040F60C00C2F62C00019001AA20464E2124
:1055500004230095FCF758FE3220FCF789F948F641
:105560008C00C0F60C00019001AA20464E210423B5
:105570000095FCF749FE02B0B0BD0000017800299B
:1055800008BF7047F0B583B040F2A844461E6427B8
:10559000C2F2000402AD00BF21F00F00090100F1CA
:1055A0000D0209308DF8090001F10D008DF80A0097
:1055B00001F109008DF808208DF80B0020464E21DE
:1055C0002A4604230097FCF71FFEB1780136002914
:1055D000E2D103B0BDE8F0407047000090B0FDF7A5
:1055E00093F900240120CDE90B44CDE9094406904C
:1055F0000A904FF4E0104FF4803102250F9006A876
:10560000CDE90714CDE90D51FDF730FB20B1EFF3E3
:10561000108072B6FEE700BF0F20CDE900054FF401
:105620008060CDE90304684602210294FDF714FA74
:1056300020B1EFF3108072B6FEE700BF40F2A8453C
:10564000C2F2000540F600482846C4F20108FFF700
:1056500021FC00200027FFF723FC41F21800CDE9D0
:105660000877C4F202000168002241F020010160C5
:1056700001684FF4204401F0200100910099016875
:1056800041F004010160016801F0040100910099FA
:10569000016841F00801016000684FF4204100F00A
:1056A0000800009000984046FCF7EEFA4FF4805056
:1056B0000690032006AE079040463146FCF7DCF921
:1056C0000120CDE9070702200990404631460694A3
:1056D000FCF7D2F9A8F5384048F2A061C0F2010108
:1056E0004FF4804285E883002846C5E90372C5E986
:1056F0000577C5E90777FCF7D3FA28B1EFF31080F7
:1057000072B600BFFEE700BF40F2445008F53051CA
:10571000C2F200000C234FF4E13280E88600C0E9B9
:105720000377C0E90537C761FEF7D2F920B1EFF37F
:10573000108072B6FEE700BF40F2FC400021C2F2CA
:1057400000004FF0804247236327CDE90011CDE9E7
:105750000B11CDE90911C0E90023C0E9021701616D
:105760008161FDF7FFFD28B1EFF3108072B600BF35
:10577000FEE700BF40F2FC40C2F200006946FDF7C0
:105780008BFC28B1EFF3108072B600BFFEE700BFBC
:10579000602006900020CDE907000A9040F2FC400E
:1057A000C2F2000006A90022FDF7DCFC20B1EFF3F5
:1057B000108072B6FEE700BF40F2FC40C2F200006B
:1057C00006A90422FDF7CEFC20B1EFF3108072B6DB
:1057D000FEE700BF40F2FC40C2F2000006A908222A
:1057E000FDF7C0FC20B1EFF3108072B6FEE700BFFA
:1057F00040F2FC48C2F2000806A940460C22FDF720
:10580000B1FC28B1EFF3108072B600BFFEE700BF15
:105810004046FDF781FC40F2A846C2F20006304641
:10582000FEF7E0FE40F2445740F2B815C2F200071E
:10583000C2F20005384629460122FEF701FA384631
:1058400000F002F9FFF71EFE384600F0FDF8304682
:10585000FEF7C8FE67A15CA2002808BF11460846F3
:1058600000F0F8F84AF20006C0F600063046FBF7F2
:105870006FFFE86206F58060FBF76AFF286306F5B4
:105880000060FBF765FF686306F54060FBF760FFAB
:10589000A86306F58050FBF75BFFE86306F5A050B0
:1058A000FBF756FF286406F5C050FBF751FF68640C
:1058B00006F5E050FBF74CFFA86406F50050FBF737
:1058C00047FFE86406F51050FBF742FF286506F530
:1058D0002050FBF73DFF686506F53050FBF738FFB9
:1058E00040F2040705F13C04C2F200071ECCD5E9E2
:1058F0000BCE3B6305F14C03D5E90D9AB962FA6210
:105900000ECBA865C7E902CE07F1180C786206F540
:1059100070507C63C7E9049A8CE80E00FBF718FF0F
:10592000286206F58040FBF713FF686206F58840A1
:10593000FBF70EFFA862404600210026FDF79EFD02
:1059400040460421FDF79AFD40460821FDF796FDEB
:1059500005F1200207CAD8F8005040F2B454C3B28F
:105960003870C8B27970D1B2C2F20004BA706B63F9
:10597000A863E963266007E0B86B8047F86B80474F
:10598000386C8047786C8047786800BF2168B1FB2D
:10599000F0F202FB10116429EED02168B1FBF0F2A5
:1059A00002FB10116429E7D02168B1FBF0F202FB81
:1059B00010116429E0D02168B1FBF0F202FB101154
:1059C0006429E3D1D8E700BF5375636365737366D9
:1059D000756C20636F6E6E656374696E6720746F9B
:1059E000204D505520363035302073656E736F7200
:1059F0000A0000004661696C656420636F6E6E6525
:105A00006374696E6720746F204D505520363035B1
:105A1000302073656E736F720A00000040F25011FF
:105A2000C2F200014A780A2808D18818002383703E
:105A300001200870501C4870704700BF8B18987088
:105A4000501C48707047000040F28C51C2F20001B7
:105A50000860704783B0B0B59BB084461FA802AC05
:105A60000EC01FAA204661460192FAF719FC40F2C7
:105A70008C50C2F2000005682046FAF74DFD82B254
:105A8000284621466423FEF729F91BB0BDE8B04043
:105A900003B07047032903D849A0FFF7DBBF00BF5D
:105AA000042967D1F0B581B0044640F2A4414068B2
:105AB000C2F2000101220A70FAF71AFD40F2A4278F
:105AC0004DF60045C2F20007C0F6000538602846D2
:105AD000FBF72AFE39682846FBF73CFEA068FAF778
